:020000040800F2
:10000000180A002089010008931A0008C91800087E
:10001000911A00084F030008991E00080000000014
:10002000000000000000000000000000971A000817
:100030005103000800000000951A0008991A0008F2
:10004000A3010008A3010008A3010008A301000800
:10005000A3010008A3010008A3010008A3010008F0
:10006000A3010008A3010008A3010008A3010008E0
:10007000A3010008A3010008A3010008A3010008D0
:10008000A3010008A3010008A3010008A3010008C0
:10009000A3010008A3010008A3010008A3010008B0
:1000A000A3010008A3010008A3010008A3010008A0
:1000B000A3010008FD1A0008A3010008A30100081D
:1000C000A3010008A3010008A3010008A301000880
:1000D000A3010008CD1D0008111E0008551E0008D0
:1000E000A3010008A3010008A301000800F002F822
:1000F00000F03AF80AA090E8000C82448344AAF188
:100100000107DA4501D100F02FF8AFF2090EBAE885
:100110000F0013F0010F18BFFB1A43F0010318473B
:10012000241F0000441F0000103A24BF78C878C183
:10013000FAD8520724BF30C830C144BF04680C60ED
:10014000704700000023002400250026103A28BF35
:1001500078C1FBD8520728BF30C148BF0B60704739
:100160001FB51FBD10B510BD00F0B7F81146FFF761
:10017000F7FF01F0A3FE00F0D5F803B4FFF7F2FF9C
:1001800003BC00F0DDF8000009488047094800473B
:10019000FEE7FEE7FEE7FEE7FEE7FEE7FEE7FEE737
:1001A000FEE7FEE704480549054A064B7047000094
:1001B000FB1A0008ED00000818040020180A0020AF
:1001C000180600201806002010B5431C02E010F8A5
:1001D000011B71B18107FAD14FF0013202C88C1AAC
:1001E0008C4314EAC211F9D0C01A0A0603D0C01E0B
:1001F00010BDC01A10BD0A0401D0801E10BD090236
:10020000FCD0401E10BD4FF0000200B513469446CE
:100210009646203922BFA0E80C50A0E80C50B1F15E
:100220002001BFF4F7AF090728BFA0E80C5048BF72
:100230000CC05DF804EB890028BF40F8042B08BF10
:10024000704748BF20F8022B11F0804F18BF00F80C
:10025000012B70474FF0013C50F8042B51F8043B40
:100260009A4221D1A2EB0C03934313EACC1317D18A
:1002700050F8042B51F8043B9A4215D1A2EB0C0321
:10028000934313EACC130BD150F8042B51F8043BE1
:100290009A4209D1A2EB0C03934313EACC13DBD0AF
:1002A0004FF00000704700BFD01A01BAB1FA81F1D7
:1002B00001F0180122FA01F0CB40C1F12001DBB2BC
:1002C000C0B2C01A2CFA01F3D11A914311EAC3113A
:1002D000E6D17047704770477047754600F02CF8BC
:1002E000AE4605006946534620F00700854618B023
:1002F00020B5FFF757FFBDE820404FF000064FF054
:1003000000074FF000084FF0000B21F00701AC464A
:10031000ACE8C009ACE8C009ACE8C009ACE8C00969
:100320008D46704710B50446AFF300802046BDE807
:100330001040FFF722BF000000487047B8030020BC
:1003400001491820ABBEFEE7260002007047FEE719
:100350007047000070B540F6B83000F061F9394CD4
:1003600000254FF4FA76A56005E037A001F07CFB8C
:10037000304600F055F920890004F6D5304600F0EB
:100380004FF9A56005E034A001F06EFB304600F0A7
:1003900047F920890004F6D54FF4FA6000F040F9DF
:1003A000A56005E034A001F05FFB304600F038F9AD
:1003B00020890004F6D5304600F032F9A56005E04A
:1003C0003BA001F051FB304600F02AF920890004DF
:1003D000F6D54FF47A7000F023F9A56005E03EA051
:1003E00001F042FB304600F01BF920890004F6D5ED
:1003F000304600F015F9A56005E040A001F034FB9F
:10040000304600F00DF920890004F6D5304600F0A2
:1004100007F9A56005E043A001F026FB304600F097
:10042000FFF820890004F6D5A56005E048A001F09A
:100430001BFB304600F0F4F820890004F6D5A560D7
:1004400070BD00000000002041542B43574D4F4425
:10045000453D310D0A00000041542B43574A41509D
:100460003D226C696E222C223231303632393933DA
:1004700039220D0A0000000041542B4D51545455AF
:100480005345524346473D302C312C2275736572DB
:1004900031222C2246414E48222C22706173737700
:1004A0006F7264222C302C302C22220D0A000000A6
:1004B00041542B4D515454434F4E4E3D302C223419
:1004C000372E39352E3137312E313531222C313816
:1004D00038332C310D0A000041542B4D51545453E4
:1004E00055423D302C22736D617274686F6D652FBB
:1004F00066616E222C300D0A0000000041542B4D25
:100500005154545355423D302C22736D61727468BE
:100510006F6D652F68756D69646966696572222CF7
:10052000300D0A0041542B4D5154545055423D302A
:100530002C22736D617274686F6D652F66616E2217
:100540002C22696E6974222C302C300D0A000000B8
:1005500041542B4D5154545055423D302C22736D13
:10056000617274686F6D652F68756D69646966691D
:100570006572222C22696E6974222C302C300D0A8F
:100580000000000072B6FEE710B590F821100024BC
:10059000022903D00421816301243DE001680A6837
:1005A00022F00E020A6001680A6822F001020A6065
:1005B0001A4A0168914201D1012121E0174A1432FF
:1005C000914201D110211BE0144A2832914201D1FD
:1005D000891515E0114A3C32914201D189140FE08E
:1005E0000E4A5032914202D14FF4803108E00B4A5A
:1005F0006432914202D14FF4801101E04FF08071DA
:10060000064A083A5160012180F82110002180F843
:100610002010416B01B18847204610BD0800024000
:1006200070B5044600F008F90546601C02D0044885
:100630000078044400F000F9401BA042FAD370BDDA
:10064000100000202DE9F84FDFF8B891002409F1DF
:10065000040A0AF1040B23460F270BF1040EC9E02C
:100660000125A5402A40AA427DD1674ED1F804C099
:10067000ACEB0608B44532D014DCBCF1030F3AD021
:1006800009DCBCF1000F2AD0BCF1010F1CD0BCF179
:10069000020F31D11DE0BCF1110F17D0BCF1120FC8
:1006A0002AD119E0B8F5881F19D006DCB8F5803FCB
:1006B00015D0B8F5801F1FD111E0B8F5001F0ED07E
:1006C000B8F5041F18D10AE0CB6815E0CB681B1DF4
:1006D00012E0CB6808330FE0CB680C330CE08B687A
:1006E0002BB1012B4FF0080303D0456104E0042334
:1006F00002E0056100E00023FF2A01D8064601E080
:1007000000F104064FEA840501D9A5F12005D6F8C9
:10071000008007FA05FC28EA0C0803FA05F548EA08
:100720000508C6F800804D68ED0062D5374DAE690A
:1007300046F00106AE61AD6924F0030605F001053F
:100740000095334D06EB050CDCF80850A607360F74
:1007500007FA06F825EA0805DFF8B880404503D116
:100760004FF0000817E044E0DFF8AC80404502D1CC
:100770004FF001080FE0DFF8A480404502D14FF0B0
:10078000020808E0DFF89880404502D14FF00308E6
:1007900001E04FF0040808FA06F848EA0508CCF82A
:1007A00008804D68D9F80060ED034D4601D5164329
:1007B00000E096432E604D68DAF80060AD035546C0
:1007C00001D5164300E096432E604D68DBF80060CB
:1007D000ED025D4601D5164300E096432E604D685C
:1007E000DEF80060AD02754601D5164300E0964381
:1007F0002E60641C0D682A46E5407FF431AFBDE8E9
:10080000F88F0000000401400000111000100240A9
:100810000000014000080140000C014000100140B0
:10082000001401408068084000D0012070470AB1E0
:10083000016170470904FBE70148806870470000C8
:1008400010000020024881680278114481607047DE
:1008500010000020074810B5016841F01001016048
:10086000032000F075F80F2000F006F800F024F8DF
:10087000002010BD0020024070B50D4D04464FF41D
:100880007A712878B1FBF0F00A490968B1FBF0F001
:1008900000F0ECFA48B9102C07D200222146501E75
:1008A00000F036F800206C6070BD012070BD0000C3
:1008B000100000201C0000200C4808B5816941F0A0
:1008C00001018161816901F001010091C16941F07B
:1008D0008051C161C06900F08050009004484168B7
:1008E00021F0E06141F00071416008BD001002405C
:1008F00000000140002809DB00F01F0201219140A7
:100900004009800000F1E020C0F8001170470000AD
:10091000F0B40E4B1B680C46C3F30223C3F107056A
:10092000042D00D90425191D072901D2002300E058
:10093000DB1E012606FA05F1491E214099409E4022
:10094000761E16403143F0BC01F0A7BA0CED00E072
:10095000064900F0070208684FF6FF03184040EA16
:100960000220034A10430860704700000CED00E0CD
:100970000000FA052DE9F0470F46050061D0434E0F
:10098000306800F00700B84209D2306820F0070054
:1009900038433060306800F00700B84251D1286811
:1009A0003B4C810712D5400703D5606840F4E060F6
:1009B00060602878000703D5606840F4605060608C
:1009C0006068A96820F0F000084360602878C007DC
:1009D00028D06868012810D02168022810D0890723
:1009E00000292EDA616821F0030101436160FFF7FD
:1009F00023FF804641F288390DE021688903EFE743
:100A00008901EDE7FFF718FFA0EB0801494502D97E
:100A10000320BDE8F0876068696800F00C00B0EB67
:100A2000810FEFD1306800F00700B8420BD9306871
:100A300020F0070038433060306800F00700B8420B
:100A400001D00120E5E72878400705D56068E9680E
:100A500020F4E060084360602878000706D56068ED
:100A6000296920F4605040EAC100606000F038F865
:100A70006168084AC1F30311515CC8400649086027
:100A800006480068FFF7F8FE0020C2E70020024099
:100A9000001002402C2000081C0000201400002040
:100AA0000448054900684968044AC1F30221515CC1
:100AB000C84070471C000020001002403C20000885
:100AC0000448054900684968044AC1F3C221515CE1
:100AD000C84070471C000020001002403C20000865
:100AE00012A185B00FC98DE80F0014A0144A006848
:100AF00004905168134801F00C03042B10D0082B0C
:100B00000ED1C1F38343C9031DF803000AD5516810
:100B100004AAC1F34041515C0A4A5043B0FBF1F0D2
:100B200005B0704708494843FAE70000020304058E
:100B3000060708090A0B0C0D0E0F10100102000029
:100B40000010024000127A0000093D002DE9F84F24
:100B5000040070D02078C04DC00749D06868C0F349
:100B60008100012807D06868C0F38100022809D1FC
:100B70006868C00306D52868800339D560680028F6
:100B8000E7D035E06068B0F5803F0BD010B1B0F52C
:100B9000A02F11D0286820F480302860286820F425
:100BA000802002E0286840F480302860606890B1BE
:100BB000FFF742FE06460AE0286840F480202860DD
:100BC000F0E700BFFFF738FE801B642873D8286861
:100BD0008003F7D50CE0FFF72FFE064605E000BFC7
:100BE000FFF72AFE801B6428F0D828688003F7D41A
:100BF00020789A4E80074FF001094FF0000839D550
:100C0000686810F00C0F07D06868C0F381000228F4
:100C100009D16868C00306D42868800714D5206904
:100C2000012808D110E02069B0B1C6F80090FFF7A4
:100C300003FE074605E00AE1FFF7FEFDC01B0228A0
:100C4000C4D828688007F7D52868616920F0F800C3
:100C500040EAC10028600DE0C6F80080FFF7ECFD17
:100C6000074604E0FFF7E8FDC01B022823D82868E8
:100C70008007F7D4207800072CD57948A169D9B12D
:100C8000C0F80090FFF7D8FD074604E0FFF7D4FD59
:100C9000C01B02280FD8686A8007F7D571484FF447
:100CA000FA510068B0FBF1F0009000BF0098411EBF
:100CB0000091FAD20EE080E0C0F80080FFF7BCFDA2
:100CC000074604E0FFF7B8FDC01B022875D8686A24
:100CD0008007F7D42078400760D5E8690027C00076
:100CE00008D4E86940F08050E861E869012700F025
:100CF000805000905C480168C90513D401688346A0
:100D000041F480710160FFF797FD824606E000BF65
:100D1000FFF792FDA0EB0A0064284ED8DBF8000034
:100D2000C005F5D5E06801280AD008B1052813D020
:100D3000286A20F001002862286A20F0040002E0FE
:100D4000286A40F001002862E06841F2883B98B1CF
:100D5000FFF772FD82460BE0286A40F0040028622B
:100D6000EEE700BFFFF768FDA0EB0A0159455AD82E
:100D7000286A8007F6D50CE0FFF75EFD824605E0A5
:100D8000FFF75AFDA0EB0A0159454CD8286A8007A5
:100D9000F6D41FB1E86920F08050E861E06988B3BB
:100DA0006968C1F38101022944D00228C6F8608035
:100DB00004D0FFF741FD044638E034E0FFF73CFD86
:100DC000074604E0FFF738FDC01B02282BD828682F
:100DD0008001F7D4206AB0F5803F05D16868A1682A
:100DE00020F4003008436860D4E9080108436968CA
:100DF00021F4741108436860C6F86090FFF71CFD89
:100E0000044606E025E000BFFFF716FD001B0228A0
:100E100009D828688001F7D51BE000BFFFF70CFD5B
:100E2000001B022802D90320BDE8F88F2868800142
:100E3000F4D40EE00128F7D06868226A00F480310B
:100E4000914204D1616A00F47010884201D00120FF
:100E5000EAE70020E8E700000010024000004242FC
:100E6000800442421C0000200070004010B5401E6B
:100E7000B0F1807F01D3012010BD4FF0E02460610C
:100E80000F21601701F009F80020A0610720206100
:100E9000002010BD7047704770B590F83C20012AC3
:100EA00026D0012480F83C40022280F83D200368CF
:100EB0005A689D6822F070060A6832435A600D4BEA
:100EC00002689A4208D0B2F1804F05D00A4B9A428C
:100ED00002D00A4B9A4204D1496825F08003194395
:100EE000916080F83D40002180F83C10084670BDBC
:100EF000022070BD002C01400004004000080040AA
:100F000010B5040003D094F83D0010B107E00120B3
:100F100010BD002084F83C00204600F01FF802209D
:100F200084F83D00211D206800F0EEFD012084F8CA
:100F3000460084F83E0084F83F0084F8400084F8BE
:100F4000410084F8420084F8430084F8440084F8A7
:100F5000450084F83D00002010BD000008B5006881
:100F60000B49884212D10B48C16941F00201C161AD
:100F7000C069002200F00200009011461D20FFF71A
:100F8000C7FCBDE808401D20FFF7B4BC08BD000049
:100F9000000400400010024090F83D10012901D0EB
:100FA00001207047022180F83D100168CA6842F0B4
:100FB0000102CA6000680B49884208D0B0F1804F36
:100FC00005D00949884202D00849884204D1816885
:100FD00001F00701062903D0016841F00101016019
:100FE00000207047002C0140000400400008004031
:100FF00070B5044690F83C00012817D0012584F80C
:101000003C50022084F83D002068826822F077027C
:1010100022F47F4282600868502830D00DDC2028FE
:101020004DD005DC98B310283BD148E0022070BDBC
:10103000302844D0402834D139E0602828D07028A6
:1010400006D0B0F5805F2CD0B0F5005F29D10AE062
:10105000CB68D1E90121206800F099FD2068816802
:1010600041F0770109E0CB68D1E90121206800F067
:101070008EFD2068816841F48041816011E0CA687A
:101080004968206800F095FD5021206807E016E0CF
:10109000CA684968206800F09DFD6021206800F062
:1010A00080FD84F83D50002084F83C0070BDCA6883
:1010B0004968206800F07DFD40212068EFE7226844
:1010C00001461046EBE7000010B5044600680B49E6
:1010D000884212D10021204600F064F9084900221C
:1010E000086023685A62074AB2FBF0F04860204665
:1010F000BDE81040002100F007B810BD000400401A
:101100002000002040420F0010B5044651B10429D0
:101110000DD0082910D094F8410094F845200128FA
:1011200011D10EE094F83E0094F84220F7E794F8CD
:101130003F0094F84320F2E794F8400094F84420EC
:10114000EDE7012A01D0012010BD022019B30429C6
:1011500026D0082929D084F8410084F845000122CE
:10116000206800F007FD13492068884208D0B0F1DC
:10117000804F05D01049884202D01049884204D1DE
:10118000816801F00701062903D0016841F00101DF
:101190000160002010BD84F83E0084F84200DEE7C4
:1011A00084F83F0084F84300D9E784F8400084F8CD
:1011B0004400D4E7002C0140000400400008004037
:1011C00070B50446006801694FF00005C9438907FE
:1011D00015D4C168C943890711D4E91E01610120F2
:1011E0002077206880698007204602D0FFF76CFFD7
:1011F00004E000F098F8204600F096F82577206883
:101200000169C943490717D4C168C943490713D4C1
:101210006FF004010161022020772068806910F4DA
:10122000407F204602D0FFF74FFF04E000F07BF83C
:10123000204600F079F8257720680169C94309073D
:1012400016D4C168C943090712D46FF008010161BF
:10125000042020772068C0698007204602D0FFF76D
:1012600033FF04E000F05FF8204600F05DF82577DA
:1012700020680169C943C90617D4C168C943C906B2
:1012800013D46FF010010161082020772068C06935
:1012900010F4407F204602D0FFF716FF04E000F074
:1012A00042F8204600F040F8257720680169C943DC
:1012B000C90708D1C168C943C90704D1891E0161A2
:1012C000204600F033F820680169C943090609D4B3
:1012D000C168C943090605D46FF080010161204649
:1012E000FFF7D8FD20680169C943490609D4C168E0
:1012F000C943490605D46FF040010161204600F062
:1013000066F820680169C94389060BD4C168C943DE
:10131000890607D46FF0200101612046BDE87040C6
:10132000FFF7B9BD70BD70477047000070B5006829
:1013300019491A4C884204D101211948FFF772FA61
:10134000606000215FF0010301EB410014F82020F0
:1013500022B1012A0AD0022A19D111E004EB80023D
:101360005268012A13D104F8203010E004EB800207
:101370005568012D0BD1022504F82050936006E03A
:1013800004EB8002526812B9002204F82020491CA4
:101390000429D9DB70BD0000000400408803002050
:1013A000000C01400246002041B1042909D008295F
:1013B0000AD00C2901D11068006C70471068406B8E
:1013C00070471068806B70471068C06B704770473B
:1013D000704710F8391F40780843704770B50268AD
:1013E00004461068D168536910F00F0F52D003F013
:1013F000010501F490762E435FD0C20705D0CA05DF
:1014000003D5E26B42F00102E263420705D5DA0739
:1014100003D0E26B42F00202E263820705D5DA07ED
:1014200003D0E26B42F00402E263020707D501F049
:1014300020022A4303D0E26B42F00802E263E26B2F
:10144000002A33D0800604D5880602D5204600F055
:10145000E9FB20684069E16BC0F38010090700D404
:1014600028B3204600F0D0FB2068416949061AD510
:10147000416921F040014161606BA0B12D49416398
:10148000606BFFF781F8002810D0606B416BBDE8FE
:1014900070400847830610D58B060ED52046BDE860
:1014A000704000F0BFBB2046FFF792FF70BD2046A2
:1014B000FFF78EFF0020E06370BD03062BD50B06FF
:1014C00029D594F839002128F6D1A068B0F5805FBD
:1014D00001D12069B0B1206A411C216221680078E5
:1014E0004860E08C401E0004000CE084E4D12068D9
:1014F000C16821F08001C1602068C16841F04001ED
:10150000C16070BD206A0088C0F308005060206A86
:10151000801C2062E5E74006F3D54806F1D5D16886
:10152000204621F04001D160202184F8391000F0DC
:10153000CAF970BDF91B000870B5040004D094F816
:101540003900002510B106E0012070BD84F8385044
:10155000204600F023F8242084F839002068C16870
:1015600021F40051C160204600F0A2FB206801690F
:1015700021F4904101612068416921F02A01416113
:101580002068C16841F40051C160E563202084F8FF
:10159000390084F83A00002070BD0000F0B585B035
:1015A000002400940194029403940368424F0220A3
:1015B00042490322424D4602BB4225D18B6943F486
:1015C00080438B618B6903F4804304938B6943F000
:1015D00004038B618969039201F004010491010203
:1015E000CDE9001069462846FFF72CF8CDE90064E4
:1015F000694628460294FFF725F800221146252067
:10160000FFF786F9252028E02E4FBB4229D1CB6970
:1016100043F40033CB61CB6903F4003304938B694B
:1016200043F004038B618969039201F00401049182
:101630000421CDE9001069462846FFF703F8082089
:10164000CDE90004694628460294FEF7FBFF00221C
:1016500011462620FFF75CF92620FFF74BF905B06D
:10166000F0BD194DAB42FAD1CB6943F48023CB6175
:10167000CB6903F4802304938B6943F008038B61E7
:101680008969124D01F00801CDE90321CDE900601F
:1016900069462846FEF7D6FFE814CDE900046946FE
:1016A00028460294FEF7CEFF002211462720FFF7BE
:1016B0002FF92720D1E70000003801400010024038
:1016C000000801400044004000480040000C014078
:1016D00090F83A30202B22D1F9B1F2B190F838309D
:1016E000012B1CD081628285C2850021C163222228
:1016F00080F83A2080F838100168CA6842F4807295
:10170000CA6001684A6942F001024A610068C16822
:1017100041F02001C1600020704701207047022085
:101720007047000070B5354C026800233449A2426E
:1017300016D14A68140413D40C465504247804D5F1
:101740000A2C0CD142F400421CE00D2C18D0C2F33C
:101750000D052C4E521CC72A74554A6000D94B60A7
:10176000294C0268A2421ED18A6814041BD4244C5E
:10177000550404F10104247809D50A2C12D103E0A0
:1017800042F480424A60EBE742F400421EE00D2C36
:101790001AD01C4EC2F30D05C836521C74558A600F
:1017A000C72A00D98B600068184A90420BD1C868DC
:1017B000020408D4124A440402F10302127807D545
:1017C0000A2A11D0CB6070BD42F480428A60EAE7F9
:1017D0000D2A0CD00E4DC0F30D04401C2A55C0F349
:1017E0000D02C860112A06D340F4004001E040F425
:1017F0008040C86070BDC728E4D870BD0038014083
:101800000000002028000020004400400048004064
:10181000B80100202DE9F843044690F839001F462E
:1018200016460D4620284CD1C5B1BEB194F83800FB
:10183000012846D0012084F838004FF00008C4F891
:101840003C80212084F83900FEF7F6FFA68481460B
:10185000E684A068B0F5805F03D004E00120BDE815
:10186000F883206928B12E465FF0000584F838809F
:101870000EE00026FAE78021204600F075FAA0B9B4
:10188000AEB116F8010B21684860E08C401EE08480
:10189000E08C4B464FF0000200970028EBD14FF050
:1018A0004001204600F060FA30B10320D7E735F858
:1018B000020BC0F30800E6E7202084F8390000207E
:1018C000CDE70220CBE77047FEE7000070B586B099
:1018D00000241E480094019402940394816941F00D
:1018E00020018161816901F020010491816941F049
:1018F00004018161816901F004010491816941F071
:10190000080181618069124E00F0080004900022F5
:10191000C0213046FEF78BFF012230213046FEF712
:1019200086FFF0200125CDE900050220CDE9024027
:1019300069463046FEF786FECDE900546946054803
:101940000294FEF77FFE06B070BD0000001002405A
:1019500000080140000C014010B586B00024174873
:101960000094019402940394049413490594016033
:101970004721C0E9011442F20F71C0E903148461E8
:10198000FFF7BEFA08B1FEF7FDFD4FF4805000905E
:1019900069460A48FFF72CFB08B1FEF7F3FD0494F3
:1019A00004A906480594FFF777FA002801D0FEF74E
:1019B000E9FD06B010BD00000004004080020020D8
:1019C0000C4810B50A4901604FF4E1314160002133
:1019D00081600C22C160C0E904128161C161FFF71E
:1019E000ABFD002803D0BDE81040FEF7CBBD10BD15
:1019F00000380140C80200200C4810B50A490160B7
:101A00004FF4E1314160002181600C22C160C0E9E6
:101A100004128161C161FFF78FFD002803D0BDE88A
:101A20001040FEF7AFBD10BD004400400803002089
:101A30000C4810B50A4901604FF4E13141600021C2
:101A400081600C22C160C0E904128161C161FFF7AD
:101A500073FD002803D0BDE81040FEF793BD10BD14
:101A6000004800404803002070B506000DD0FEF786
:101A7000ABFB0546002406E03119FF230122034891
:101A8000FFF7C8FE641CAC42F6D370BD080300200B
:101A9000FEE7FEE770477047FEF7D4BE30B58FB063
:101AA00028216846FEF7AFFB14210AA8FEF7ABFB1E
:101AB00001210804CDE900100024029402250491BC
:101AC000CDE907504FF4E01009906846FFF73EF863
:101AD00008B172B6FEE70F20CDE90A054FF4806029
:101AE000CDE90C4002210AA80E94FEF743FF00281E
:101AF00001D072B6FEE70FB030BD70470148FFF766
:101B00005FBB000080020020F0B50268164B174C46
:101B1000174D4FF08047984205D0B84203D0A042FD
:101B200001D0A84203D122F070064A68324398429D
:101B300005D0B84203D0A04201D0A84203D122F47C
:101B40004074CA6822434C6922F08002224302603A
:101B50008A68C2620A688262984201D10969016397
:101B600001214161F0BD0000002C01400004004053
:101B70000008004010B501F01F030121046A9940DC
:101B80008C430462016A9A401143016210BD10B592
:101B9000846842EA032224F47F440A432243826099
:101BA00010BD826822F070020A4342F00701816092
:101BB000704710B5036A046A24F001040462846962
:101BC00024F0F00444EA021423F00A020A43846178
:101BD000026210BD10B5036A23F01003036283692B
:101BE000046A23F4704343EA023224F0A00343EA78
:101BF00001118261016210BD10B5406A0021C185EA
:101C0000C184FFF7E5FB10BD0168CA6822F4907239
:101C1000CA6001684A6922F001024A61202180F805
:101C20003A10704710B590F83A10222901D00220DE
:101C300010BD82684FF480539A4201D1016921B1ED
:101C4000816A9A421BD04AB10AE00268816A5268EE
:101C5000C2F308020A80816A891C08E0026972B135
:101C60000268526802F07F020A70816A491C816230
:101C7000C18D491E0904090CC18503D016E0026814
:101C80005268F1E70168CA6822F02002CA60016860
:101C9000CA6822F48072CA6001684A6922F00102AF
:101CA0004A61202180F83A10FFF73CFD002010BD6A
:101CB00070B5044600680169E26821F4405111439F
:101CC00001612169A0680843616908432168CA6805
:101CD00041F20C639A430243CA6020684169A269D9
:101CE00021F44071114341611E492068884202D1AC
:101CF000FEF7E6FE01E0FEF7D3FE00EBC00101EBCC
:101D00000012606864218000B2FBF0F3B3FBF1F3D2
:101D10006FF018067343B2FBF0F5B2FBF0F605EB7B
:101D20008305322303EB0515B5FBF1F5B6FBF1F6A0
:101D300005F0F00505EB0615B2FBF0F6B2FBF0F08E
:101D4000B0FBF1F06FF01802504306EB800003EB9C
:101D50000010B0FBF1F0216800F00F00284488600B
:101D600070BD0000003801402DE9F041984617464B
:101D70000E460446069D1DE0681C1BD02DB1FEF7E3
:101D80005BFDA0EB0800A84214D92068C16821F4CB
:101D9000D071C1602068416921F0010141612020BA
:101DA00084F8390084F83A00002084F838000320D1
:101DB000BDE8F0812068006836EA000004D0002009
:101DC000B842D9D00020F3E70120F9E770B500242C
:101DD0000C4D0D48FFF702FB02E0641CAC4204D836
:101DE0000948FFF7F6FA2028F7D1002402E0641C26
:101DF000AC4206D8012205490348FFF769FC0028D8
:101E0000F5D170BDFFFF0100C802002000000020D6
:101E100070B500240C4D0D48FFF7E0FA02E0641C99
:101E2000AC4204D80948FFF7D4FA2028F7D100249F
:101E300002E0641CAC4206D8012205490348FFF7C2
:101E400047FC0028F5D170BDFFFF0100080300200A
:101E50000100002070B500240C4D0D48FFF7BEFABC
:101E600002E0641CAC4204D80948FFF7B2FA20280B
:101E7000F7D1002402E0641CAC4206D801220549D7
:101E80000348FFF725FC0028F5D170BDFFFF0100D6
:101E90004803002003000020FEE70907090E002880
:101EA00004DB00F1E02080F80014704700F00F0020
:101EB00000F1E02080F8141D70470000FEF7CAFC16
:101EC000FFF7ECFDFFF702FDFFF77AFDFFF794FD4A
:101ED000FFF7AEFDFFF740FD2548FFF75DF8012253
:101EE00024492548FFF7F4FB22490122491C2348D5
:101EF000FFF7EEFB1F490122C91C2148FFF7E8FB51
:101F0000FEF728FA1B4C1F4E1F4F0025A068010446
:101F1000FCD5C0B2A070A560222812D335541BA1F5
:101F20001848FEF797F928B121A11648FEF792F953
:101F300010B106E0002200E0012210213846FEF731
:101F400076FCA0782928E1D3355422A10D48FEF76C
:101F500081F958B12AA10B48FEF77CF90028D5D1A8
:101F6000012220213846FEF762FCCFE70022F8E785
:101F70008002002000000020C8020020080300208A
:101F800048030020F0000020000801402B4D515470
:101F900054535542524543563A302C22736D617268
:101FA00074686F6D652F66616E222C312C310000D4
:101FB0002B4D515454535542524543563A302C22DE
:101FC000736D617274686F6D652F66616E222C315E
:101FD0002C3000002B4D515454535542524543561A
:101FE0003A302C22736D617274686F6D652F68755D
:101FF0006D69646966696572222C312C31000000BC
:102000002B4D515454535542524543563A302C228D
:10201000736D617274686F6D652F68756D69646941
:1020200066696572222C312C30000000000000002F
:102030000000000001020304060708090000000078
:1020400001020304642000080000002028000000B2
:10205000280100088C20000828000020F00900005A
:102060004401000800000000000000000000000023
:10207000000000000100000010000000000000004F
:0C2080000024F40000000000000000003C
:04000005080000ED02
:00000001FF
