:020000040800F2
:10000000A80F002089010008632800084D1F000880
:10001000612800086B03000845310008000000005B
:10002000000000000000000000000000F92B0008A4
:100030006D030008000000009D2A0008FB2B00084B
:10004000A3010008A3010008A3010008A301000800
:10005000A3010008A3010008A3010008A3010008F0
:10006000A3010008A3010008A3010008A3010008E0
:10007000A3010008A3010008A3010008A3010008D0
:10008000A3010008A3010008A3010008A3010008C0
:10009000A3010008A3010008A3010008A3010008B0
:1000A000A3010008A3010008A3010008A3010008A0
:1000B000A3010008612C0008A3010008A3010008A7
:1000C000A3010008A3010008A3010008A301000880
:1000D000A301000879300008BD3000080131000894
:1000E000A3010008A3010008A301000800F002F822
:1000F00000F03AF80AA090E8000C82448344AAF188
:100100000107DA4501D100F02FF8AFF2090EBAE885
:100110000F0013F0010F18BFFB1A43F0010318473B
:10012000043E0000243E0000103A24BF78C878C185
:10013000FAD8520724BF30C830C144BF04680C60ED
:10014000704700000023002400250026103A28BF35
:1001500078C1FBD8520728BF30C148BF0B60704739
:100160001FB51FBD10B510BD00F0C5F81146FFF753
:10017000F7FF03F077F800F0E3F803B4FFF7F2FFBE
:1001800003BC00F0EBF8000009488047094800472D
:10019000FEE7FEE7FEE7FEE7FEE7FEE7FEE7FEE737
:1001A000FEE7FEE704480549054A064B7047000094
:1001B0005D2C0008ED000008A8090020A80F002011
:1001C000A80B0020A80B002040EA010310B59B07F4
:1001D0000FD1042A0DD310C808C9121F9C42F8D0B1
:1001E00020BA19BA884201D9012010BD4FF0FF3062
:1001F00010BD1AB1D30703D0521C07E0002010BD78
:1002000010F8013B11F8014B1B1B07D110F8013B03
:1002100011F8014B1B1B01D1921EF1D1184610BDE4
:100220004FF0000200B5134694469646203922BF8F
:10023000A0E80C50A0E80C50B1F12001BFF4F7AFDA
:10024000090728BFA0E80C5048BF0CC05DF804EBBC
:10025000890028BF40F8042B08BF704748BF20F82A
:10026000022B11F0804F18BF00F8012B70470000DF
:100270004FF0013C50F8042B51F8043B9A4221D135
:10028000A2EB0C03934313EACC1317D150F8042BC1
:1002900051F8043B9A4215D1A2EB0C03934313EAA5
:1002A000CC130BD150F8042B51F8043B9A4209D1DE
:1002B000A2EB0C03934313EACC13DBD04FF0000006
:1002C000704700BFD01A01BAB1FA81F101F01801EC
:1002D00022FA01F0CB40C1F12001DBB2C0B2C01A5A
:1002E0002CFA01F3D11A914311EAC311E6D17047F8
:1002F000704770477047754600F02CF8AE46050011
:100300006946534620F00700854618B020B5FFF730
:1003100049FFBDE820404FF000064FF000074FF0C6
:1003200000084FF0000B21F00701AC46ACE8C00913
:10033000ACE8C009ACE8C009ACE8C0098D4670471C
:1003400010B50446AFF300802046BDE81040FFF72B
:1003500014BF0000004870474409002001491820DC
:10036000ABBEFEE7260002007047FEE7704772B69C
:10037000FEE7000010B590F821100024022903D0F8
:100380000421816301243DE001680A6822F00E0225
:100390000A6001680A6822F001020A601A4A0168CC
:1003A000914201D1012121E0174A1432914201D139
:1003B00010211BE0144A2832914201D1891515E021
:1003C000114A3C32914201D189140FE00E4A503259
:1003D000914202D14FF4803108E00B4A64329142DD
:1003E00002D14FF4801101E04FF08071064A083AC3
:1003F0005160012180F82110002180F82010416B0C
:1004000001B18847204610BD0800024070B504467F
:1004100000F008F90546601C02D004480078044446
:1004200000F000F9401BA042FAD370BD7400002018
:100430002DE9F84FDFF8B891002409F1040A0AF118
:10044000040B23460F270BF1040EC9E00125A5403C
:100450002A40AA427DD1674ED1F804C0ACEB060811
:10046000B44532D014DCBCF1030F3AD009DCBCF146
:10047000000F2AD0BCF1010F1CD0BCF1020F31D10A
:100480001DE0BCF1110F17D0BCF1120F2AD119E0F9
:10049000B8F5881F19D006DCB8F5803F15D0B8F53F
:1004A000801F1FD111E0B8F5001F0ED0B8F5041F52
:1004B00018D10AE0CB6815E0CB681B1D12E0CB68B1
:1004C00008330FE0CB680C330CE08B682BB1012BA9
:1004D0004FF0080303D0456104E0042302E0056106
:1004E00000E00023FF2A01D8064601E000F10406DF
:1004F0004FEA840501D9A5F12005D6F8008007FA56
:1005000005FC28EA0C0803FA05F548EA0508C6F8D0
:1005100000804D68ED0062D5374DAE6946F00106AA
:10052000AE61AD6924F0030605F001050095334D79
:1005300006EB050CDCF80850A607360F07FA06F89C
:1005400025EA0805DFF8B880404503D14FF00008E0
:1005500017E044E0DFF8AC80404502D14FF00108DD
:100560000FE0DFF8A480404502D14FF0020808E018
:10057000DFF89880404502D14FF0030801E04FF0CA
:10058000040808FA06F848EA0508CCF808804D681F
:10059000D9F80060ED034D4601D5164300E09643BF
:1005A0002E604D68DAF80060AD03554601D516435C
:1005B00000E096432E604D68DBF80060ED025D467A
:1005C00001D5164300E096432E604D68DEF80060CA
:1005D000AD02754601D5164300E096432E60641CBB
:1005E0000D682A46E5407FF431AFBDE8F88F000082
:1005F0000004014000001110001002400000014002
:1006000000080140000C01400010014000140140AE
:100610008068084000D0012070470AB1016170472E
:100620000904FBE70148806870470000740000205F
:1006300070B5040025D094F83D00002520B984F859
:100640003C50204600F04EF9242084F83D002068FC
:10065000016821F0010101602068016841F4004156
:1006600001602068016821F40041016000F0A6FAF1
:100670004D4A6168914201D84C4900E04C4988429A
:1006800001D2012070BD4B492368B0FBF1F15E68D7
:1006900026F03F060E435E606368934206D94FF42E
:1006A000967359434FF47A73B1FBF3F12368491CF5
:1006B0001E6A26F03F06314319626168914210D8E4
:1006C0004900401EB0FBF1F2521CC2F30B02042A97
:1006D00001D2042022E0B0FBF1F0401CC0F30B007B
:1006E0001CE0A268F2B301EBC10303EB0116431E49
:1006F000B3FBF6F35B1C43F480431B0549D092B374
:1007000001EBC10202EB0111401EB0FBF1F0401CF5
:10071000C0F30B0040F4804040F400402168CA69F7
:100720004CF6FF739A431043C861D4E907100143A4
:100730002068026822F0C00211430160D4E903017D
:1007400001432068826848F2FF339A431143816075
:10075000D4E9050108432168CA6822F0FF0210436A
:10076000C86001E00EE016E02068016841F0010178
:1007700001602564202084F83D00256384F83E5004
:10078000002070BD01EB4106431EB3FBF6F35B1C7A
:10079000B3E70120C2E701EB4101401EB0FBF1F0DD
:1007A000401CC0F30B00B7E7A086010080841E0048
:1007B00000093D0040420F002DE9F84F1F469046CA
:1007C0008A460446DDF82890FFF72CFF054694F88A
:1007D0003D0020287FD11923012240492046009561
:1007E00001F040FC002876D194F83C00012872D03A
:1007F000012084F83C0020680168C90703D1016822
:1008000041F0010101602068016821F4006101608C
:10081000212084F83D00102084F83E000026266444
:10082000C4F824806785608D20852D48E0622B46C2
:100830004A465146204601F0A1FB90B92068416923
:100840008069009036E02A464946204601F089FC3E
:1008500050B1206C042804D12068016841F4007173
:1008600001600120BDE8F88F606A216800780861A6
:10087000606A401C6062618D491E6185218D491E40
:1008800089B2218522685369DB435B070BD451B1E0
:1008900000781061606A401C6062608D401E608557
:1008A000208D401E20852A464946204601F0B4FB93
:1008B0000028CED1208D0028C5D154F83D0B016809
:1008C00041F400710160202004F81E09E677667784
:1008D0000020C7E7FFE70220C4E700000200100085
:1008E0000000FFFF10B586B0002100910191029138
:1008F000039100680F4988421AD10F4CA06940F05B
:100900000800A061A069694600F008000490C020BA
:10091000009012200190032003900848FFF788FD03
:10092000E06940F40010E061E06900F40010049018
:1009300006B010BD0054004000100240000C014001
:100940001CB502238DF804000A208DF805100090D4
:1009500001AA78210148FFF72FFF1CBD08030020E2
:100960000248816802781144816070477400002059
:10097000074810B5016841F010010160032000F044
:1009800075F80F2000F006F800F024F8002010BDE4
:100990000020024070B50D4D04464FF47A7128785E
:1009A000B1FBF0F00A490968B1FBF0F000F06FFC10
:1009B00048B9102C07D200222146501E00F036F80C
:1009C00000206C6070BD012070BD0000740000202C
:1009D000800000200C4808B5816941F00101816167
:1009E000816901F001010091C16941F08051C1614B
:1009F000C06900F0805000900448416821F0E06137
:100A000041F00071416008BD00100240000001404B
:100A1000002809DB00F01F020121914040098000FD
:100A200000F1E020C0F8001170470000F0B40E4B58
:100A30001B680C46C3F30223C3F10705042D00D93C
:100A40000425191D072901D2002300E0DB1E012621
:100A500006FA05F1491E214099409E40761E164037
:100A60003143F0BC02F077BB0CED00E0064900F02A
:100A7000070208684FF6FF03184040EA0220034AC5
:100A800010430860704700000CED00E00000FA051C
:100A90002DE9F0470F46050061D0434E306800F065
:100AA0000700B84209D2306820F0070038433060B0
:100AB000306800F00700B84251D128683B4C8107EC
:100AC00012D5400703D5606840F4E0606060287884
:100AD000000703D5606840F4605060606068A968F2
:100AE00020F0F000084360602878C00728D06868CC
:100AF000012810D02168022810D0890700292EDA99
:100B0000616821F0030101436160FFF78BFD8046BE
:100B100041F288390DE021688903EFE78901EDE7AB
:100B2000FFF780FDA0EB0801494502D90320BDE88D
:100B3000F0876068696800F00C00B0EB810FEFD1BE
:100B4000306800F00700B8420BD9306820F0070089
:100B500038433060306800F00700B84201D001200F
:100B6000E5E72878400705D56068E96820F4E0608B
:100B7000084360602878000706D56068296920F47A
:100B8000605040EAC100606000F038F86168084ACF
:100B9000C1F30311515CC84006490860064800686B
:100BA000FFF7F8FE0020C2E70020024000100240DC
:100BB0009436000880000020780000200448054991
:100BC00000684968044AC1F30221515CC84070477B
:100BD0008000002000100240A436000804480549A7
:100BE00000684968044AC1F3C221515CC84070479B
:100BF0008000002000100240A436000812A185B039
:100C00000FC98DE80F0014A0144A006804905168C1
:100C1000134801F00C03042B10D0082B0ED1C1F3A4
:100C20008343C9031DF803000AD5516804AAC1F320
:100C30004041515C0A4A5043B0FBF1F005B07047A7
:100C400008494843FAE700000203040506070809BB
:100C50000A0B0C0D0E0F10100102000000100240D4
:100C600000127A0000093D002DE9F84F040070D011
:100C70002078C04DC00749D06868C0F381000128C2
:100C800007D06868C0F38100022809D16868C003F2
:100C900006D52868800339D560680028E7D035E09C
:100CA0006068B0F5803F0BD010B1B0F5A02F11D027
:100CB000286820F480302860286820F4802002E032
:100CC000286840F480302860606890B1FFF7AAFC83
:100CD00006460AE0286840F480202860F0E700BF5C
:100CE000FFF7A0FC801B642873D828688003F7D521
:100CF0000CE0FFF797FC064605E000BFFFF792FC0B
:100D0000801B6428F0D828688003F7D420789A4E96
:100D100080074FF001094FF0000839D5686810F0DE
:100D20000C0F07D06868C0F38100022809D16868F9
:100D3000C00306D42868800714D52069012808D18B
:100D400010E02069B0B1C6F80090FFF76BFC0746D1
:100D500005E00AE1FFF766FCC01B0228C4D828683A
:100D60008007F7D52868616920F0F80040EAC100E3
:100D700028600DE0C6F80080FFF754FC074604E049
:100D8000FFF750FCC01B022823D828688007F7D43F
:100D9000207800072CD57948A169D9B1C0F8009016
:100DA000FFF740FC074604E0FFF73CFCC01B0228AD
:100DB0000FD8686A8007F7D571484FF4FA51006878
:100DC000B0FBF1F0009000BF0098411E0091FAD2F4
:100DD0000EE080E0C0F80080FFF724FC074604E046
:100DE000FFF720FCC01B022875D8686A8007F7D47B
:100DF0002078400760D5E8690027C00008D4E8697A
:100E000040F08050E861E869012700F080500090D0
:100E10005C480168C90513D40168834641F48071B8
:100E20000160FFF7FFFB824606E000BFFFF7FAFB19
:100E3000A0EB0A0064284ED8DBF80000C005F5D509
:100E4000E06801280AD008B1052813D0286A20F0EC
:100E500001002862286A20F0040002E0286A40F0BD
:100E600001002862E06841F2883B98B1FFF7DAFBA5
:100E700082460BE0286A40F004002862EEE700BFDB
:100E8000FFF7D0FBA0EB0A0159455AD8286A800722
:100E9000F6D50CE0FFF7C6FB824605E0FFF7C2FB84
:100EA000A0EB0A0159454CD8286A8007F6D41FB137
:100EB000E86920F08050E861E06988B36968C1F3AF
:100EC0008101022944D00228C6F8608004D0FFF7CF
:100ED000A9FB044638E034E0FFF7A4FB074604E032
:100EE000FFF7A0FBC01B02282BD828688001F7D48D
:100EF000206AB0F5803F05D16868A16820F4003011
:100F000008436860D4E908010843696821F4741152
:100F100008436860C6F86090FFF784FB044606E06B
:100F200025E000BFFFF77EFB001B022809D82868D8
:100F30008001F7D51BE000BFFFF774FB001B022800
:100F400002D90320BDE8F88F28688001F4D40EE0B0
:100F50000128F7D06868226A00F48031914204D1F8
:100F6000616A00F47010884201D00120EAE7002095
:100F7000E8E70000001002400000424280044242C4
:100F8000800000200070004070B5040009D0606A45
:100F9000002540B125616561A56294F8510040B11A
:100FA0000CE0012070BD6068B0F5827FF4D0E5618F
:100FB000F2E784F85050204600F040F8022084F810
:100FC00051002068016821F040010160A08821895A
:100FD00000F4827001F404410843A18901F4006126
:100FE0000843217C01F002010843217D01F0010149
:100FF0000843218B01F400710843217F01F038017F
:10100000084394F8201001F080010843218D01F479
:101010000051084321680860A069042101EA1040DA
:10102000216848602068C16921F40061C16165657B
:10103000012084F85100002070BD000030B585B05B
:101040000024009401940294039400681449884297
:1010500023D11448816941F480518161816901F48F
:1010600080510491816941F00401816180690E4DD4
:1010700000F004000490A0200090022001900320C2
:10108000039069462846FFF7D3F94020CDE90004D4
:10109000694628460294FFF7CBF905B030BD000041
:1010A0000030014000100240000801402DE9F84FD7
:1010B000044690F8500000270A9E1D4692468B4633
:1010C0004FF0010901280ED0012084F85000FFF7ED
:1010D000A9FA804694F85100616801280CD0B1F556
:1010E000827F07D102E00220BDE8F88FA16809B92C
:1010F000042801D00227C2E0BBF1000F27D0BAF1CB
:10110000000F24D01DB394F85100042802D005200C
:1011100084F8510000206065C4F838A0E587A587F1
:10112000C4F830B0E586A586206460642068016854
:10113000490603D4016841F040010160E068B0F560
:10114000006F606805D0E8B3012D46D07FE001272D
:1011500095E008B1012D39D1206B21680088C86065
:10116000206B801C2063E08E401EE0862EE020680D
:10117000816889070FD5E18E69B1B9F1010F0AD1F4
:10118000216B0988C160206B801C2063E08E401EAB
:10119000E0864FF0000920688168C9070CD0E18F14
:1011A00051B1C068A16B0880A06B801CA063E08F68
:1011B000401EE0874FF00109FFF734FAA0EB08006A
:1011C000B04200E009E001D3701C50D1E08E00284D
:1011D000CDD1E08F0028CAD13FE0206B2168007894
:1011E0000873206B401C2063E08E401EE0862EE0DA
:1011F0002068816889070FD5E18E69B1B9F1010FC7
:101200000AD1216B09780173206B401C2063E08EAA
:10121000401EE0864FF0000920688168C9070CD0A5
:10122000E18F51B1C068A16B0870A06B401CA06336
:10123000E08F401EE0874FF00109FFF7F3F9A0EBC4
:101240000800B04202D3701C01D010E07EB1E08EE5
:101250000028CDD1E08F0028CAD142463146204631
:1012600001F05EFC28B101272020606507E003271C
:1012700005E0A06818B92068C16880680090012066
:1012800084F85100002084F8500038462CE710B54F
:10129000401EB0F1807F01D3012010BD4FF0E0244B
:1012A00060610F21601701F056FF0020A061072048
:1012B0002061002010BD70477047000070B590F8A5
:1012C0003C20012A26D0012480F83C40022280F8EC
:1012D0003D2003685A689D6822F070060A68324310
:1012E0005A600D4B02689A4208D0B2F1804F05D087
:1012F0000A4B9A4202D00A4B9A4204D1496825F01F
:1013000080031943916080F83D40002180F83C1033
:10131000084670BD022070BD002C01400004004052
:101320000008004010B5040003D094F83D0010B14F
:1013300007E0012010BD002084F83C00204600F0AA
:101340001FF8022084F83D00211D206801F08EFC6A
:10135000012084F8460084F83E0084F83F0084F8B9
:10136000400084F8410084F8420084F8430084F887
:10137000440084F8450084F83D00002010BD0000C2
:1013800008B501681048B1F1804F14D00F4A91425E
:1013900019D1C16941F00201C161C069002200F0A8
:1013A0000200009011461D20FFF740FBBDE80840F9
:1013B0001D20FFF72DBBC16941F00101C161C0696A
:1013C00000F00100009008BD001002400004004041
:1013D00090F83D10012901D001207047022180F8CA
:1013E0003D100168CA6842F00102CA6000680B49FA
:1013F000884208D0B0F1804F05D00949884202D018
:101400000849884204D1816801F00701062903D008
:10141000016841F00101016000207047002C01408B
:10142000000400400008004070B5044690F83C00FD
:10143000012817D0012584F83C50022084F83D0093
:101440002068826822F0770222F47F428260086876
:10145000502830D00DDC20284DD005DC98B3102862
:101460003BD148E0022070BD302844D0402834D120
:1014700039E0602828D0702806D0B0F5805F2CD0E5
:10148000B0F5005F29D10AE0CB68D1E901212068DD
:1014900001F02FFC2068816841F0770109E0CB68FA
:1014A000D1E90121206801F024FC2068816841F421
:1014B0008041816011E0CA684968206801F0CEFC73
:1014C0005021206807E016E0CA684968206801F0EA
:1014D000D6FC6021206801F016FC84F83D50002005
:1014E00084F83C0070BDCA684968206801F0B6FC09
:1014F00040212068EFE7226801461046EBE7000034
:101500002DE9F041054600680026144C144FB0F157
:10151000804F0DD10021284600F084FA2060296810
:101520004E62B7FBF0F0A0600021284600F01CF8E6
:101530000C49286888420FD10021284600F072FA31
:10154000606029684E62B7FBF0F0E0602846BDE8B5
:10155000F041002100F008B8BDE8F08184000020CF
:1015600040420F000004004010B5044651B1042968
:101570000DD0082910D094F8410094F84520012896
:1015800011D10EE094F83E0094F84220F7E794F869
:101590003F0094F84320F2E794F8400094F8442088
:1015A000EDE7012A01D0012010BD022019B3042962
:1015B00026D0082929D084F8410084F8450001226A
:1015C000206801F089FB13492068884208D0B0F1F7
:1015D000804F05D01049884202D01049884204D17A
:1015E000816801F00701062903D0016841F001017B
:1015F0000160002010BD84F83E0084F84200DEE760
:1016000084F83F0084F84300D9E784F8400084F868
:101610004400D4E7002C01400004004000080040D2
:1016200070B50446006801694FF00005C943890799
:1016300015D4C168C943890711D4E91E016101208D
:101640002077206880698007204602D0FFF758FF86
:1016500004E000F0C9F8204600F058F9257720682A
:101660000169C943490717D4C168C943490713D45D
:101670006FF004010161022020772068806910F476
:10168000407F204602D0FFF73BFF04E000F0ACF8BB
:10169000204600F03BF9257720680169C943090716
:1016A00016D4C168C943090712D46FF0080101615B
:1016B000042020772068C0698007204602D0FFF709
:1016C0001FFF04E000F090F8204600F01FF9257796
:1016D00020680169C943C90617D4C168C943C9064E
:1016E00013D46FF010010161082020772068C069D1
:1016F00010F4407F204602D0FFF702FF04E000F024
:1017000073F8204600F002F9257720680169C94383
:10171000C90708D1C168C943C90704D1891E01613D
:10172000204600F043F920680169C943090609D43D
:10173000C168C943090605D46FF0800101612046E4
:10174000FFF7B9FD20680169C943490609D4C1689A
:10175000C943490605D46FF040010161204600F0FD
:1017600076F920680169C94389060BD4C168C94369
:10177000890607D46FF0200101612046BDE8704062
:10178000FFF79ABD70BD000000B585B00021009143
:101790000191029103910068B0F1804F1BD10F4875
:1017A000816941F0040181618069694600F00400AB
:1017B00004904FF4004000900220019003900848EC
:1017C000FEF736FE0748416821F4407141F0E061C0
:1017D00041F48071416005B000BD0000001002407E
:1017E0000008014000000140704770B5044690F8C1
:1017F0003C000D4601280AD0012084F83C0042B18B
:10180000042A18D0082A2AD00C2A4DD139E0022007
:1018100070BD206801F080FA2068816941F00801FC
:1018200081612068816921F00401816120688169FA
:101830002A69114311E0206801F096FA2068816955
:1018400041F4006181612068816921F480618161D6
:10185000206881692A6941EA0221816124E02068C7
:1018600001F0AEFA2068C16941F00801C161206849
:10187000C16921F00401C1612068C1692A6911436D
:1018800011E0206801F0C8FA2068C16941F40061E4
:10189000C1612068C16921F48061C1612068C169AA
:1018A0002A6941EA0221C161002084F83C0070BD30
:1018B00010B5040003D094F83D0010B107E00120FA
:1018C00010BD002084F83C00204600F01EF80220E5
:1018D00084F83D00211D206801F0C8F9012084F83A
:1018E000460084F83E0084F83F0084F8400084F805
:1018F000410084F8420084F8430084F8440084F8EE
:10190000450084F83D00002010BD7047704700007E
:1019100010B50446022249B104290ED0082913D07B
:1019200094F84100012816D0012010BD94F83E0023
:101930000128F9D184F83E200FE094F83F000128F7
:10194000F2D184F83F2008E094F840000128EBD160
:1019500084F8402001E084F841200122206801F051
:10196000BBF90F492068884203D1426C42F400421F
:1019700042642068884208D0B0F1804F05D0094900
:10198000884202D00849884204D1816801F00701E9
:10199000062903D0016841F001010160002010BD5B
:1019A000002C0140000400400008004070B50068B1
:1019B00019491A4C884204D101211948FEF728FE22
:1019C000606000215FF0010301EB410014F820206A
:1019D00022B1012A0AD0022A19D111E004EB8002B7
:1019E0005268012A13D104F8203010E004EB800281
:1019F0005568012D0BD1022504F82050936006E0B4
:101A000004EB8002526812B9002204F82020491C1D
:101A10000429D9DB70BD000000040040040500204B
:101A2000000C01400246002041B1042909D00829D8
:101A30000AD00C2901D11068006C70471068406B07
:101A400070471068806B70471068C06B70477047B4
:101A5000704710F8391F40780843704770B5026826
:101A600004461068D168536910F00F0F52D003F08C
:101A7000010501F490762E435FD0C20705D0CA0558
:101A800003D5E26B42F00102E263420705D5DA07B3
:101A900003D0E26B42F00202E263820705D5DA0767
:101AA00003D0E26B42F00402E263020707D501F0C3
:101AB00020022A4303D0E26B42F00802E263E26BA9
:101AC000002A33D0800604D5880602D5204601F0CE
:101AD000FEF920684069E16BC0F38010090700D46B
:101AE00028B3204601F0E5F92068416949061AD576
:101AF000416921F040014161606BA0B12D49416312
:101B0000606BFEF737FC002810D0606B416BBDE8BE
:101B100070400847830610D58B060ED52046BDE8D9
:101B2000704001F0D4B92046FFF792FF70BD204607
:101B3000FFF78EFF0020E06370BD03062BD50B0678
:101B400029D594F839002128F6D1A068B0F5805F36
:101B500001D12069B0B1206A411C2162216800785E
:101B60004860E08C401E0004000CE084E4D1206852
:101B7000C16821F08001C1602068C16841F0400166
:101B8000C16070BD206A0088C0F308005060206A00
:101B9000801C2062E5E74006F3D54806F1D5D16800
:101BA000204621F04001D160202184F8391000F056
:101BB000CCF970BDA32E000870B5040004D094F8D1
:101BC0003900002510B106E0012070BD84F83850BE
:101BD000204600F023F8242084F839002068C168EA
:101BE00021F40051C160204601F0B8F92068016974
:101BF00021F4904101612068416921F02A0141618D
:101C00002068C16841F40051C160E563202084F878
:101C1000390084F83A00002070BD0000F0B585B0AE
:101C2000002400940194029403940368424F02201C
:101C300042490322424D4602BB4225D18B6943F4FF
:101C400080438B618B6903F4804304938B6943F079
:101C500004038B618969039201F00401049101027C
:101C6000CDE9001069462846FEF7E2FBCDE90064A5
:101C7000694628460294FEF7DBFB00221146252028
:101C8000FEF7D4FE252028E02E4FBB4229D1CB6998
:101C900043F40033CB61CB6903F4003304938B69C5
:101CA00043F004038B618969039201F004010491FC
:101CB0000421CDE9001069462846FEF7B9FB08204B
:101CC000CDE90004694628460294FEF7B1FB0022E4
:101CD00011462620FEF7AAFE2620FEF799FE05B043
:101CE000F0BD194DAB42FAD1CB6943F48023CB61EF
:101CF000CB6903F4802304938B6943F008038B6161
:101D00008969124D01F00801CDE90321CDE9006098
:101D100069462846FEF78CFBE814CDE900046946C5
:101D200028460294FEF784FB002211462720FEF786
:101D30007DFE2720D1E7000000380140001002405E
:101D4000000801400044004000480040000C0140F1
:101D500090F83A30202B22D1F9B1F2B190F8383016
:101D6000012B1CD081628285C2850021C1632222A1
:101D700080F83A2080F838100168CA6842F480720E
:101D8000CA6001684A6942F001024A610068C1689C
:101D900041F02001C16000207047012070470220FF
:101DA0007047000070B5364C026800233549A242E6
:101DB00017D18A68140414D401F10104550424785D
:101DC00004D50A2C0CD142F400421CE00D2C18D092
:101DD000C2F30D052C4E521CC72A74558A6000D9D7
:101DE0008B602A4C0268A2421ED1CA6814041BD41C
:101DF000244C550404F10304247809D50A2C12D18B
:101E000003E042F480428A60EBE742F400421EE0C5
:101E10000D2C1AD01C4EC2F30D05C836521C745539
:101E2000CA60C72A00D9CB600068194A90420BD11A
:101E30000869020408D4134A440402F10502127826
:101E400007D50A2A11D00B6170BD42F48042CA60E6
:101E5000EAE70D2A0CD00F4DC0F30D04401C2A55A3
:101E6000C0F30D020861112A06D340F4004001E0DE
:101E700040F48040086170BDC728E4D870BD000000
:101E80000038014000000020940000200044004081
:101E900000480040240200202DE9F843044690F851
:101EA00039001F4616460D4620284CD1C5B1BEB19B
:101EB00094F83800012846D0012084F838004FF00B
:101EC0000008C4F83C80212084F83900FEF7AAFB02
:101ED000A6848146E684A068B0F5805F03D004E064
:101EE0000120BDE8F883206928B12E465FF0000587
:101EF00084F838800EE00026FAE78021204601F0C1
:101F000089F8A0B9AEB116F8010B21684860E08CE1
:101F1000401EE084E08C4B464FF000020097002802
:101F2000EBD14FF04001204601F074F830B10320AE
:101F3000D7E735F8020BC0F30800E6E7202084F865
:101F400039000020CDE70220CBE77047FEE70168AB
:101F50004A69D24352050FD46FF480624A6100216E
:101F600040F8301F202242738173026942F004025C
:101F7000026101730120704700207047F8B50446E4
:101F8000C06A1E460D461746082807D0012805D00E
:101F900010F5803F02D0206B122804D12068016820
:101FA00041F480710160134600224FF00111204678
:101FB000009600F057F840B120680068C00502D5CF
:101FC0004FF4007020640320F8BD2069B0F5804F05
:101FD0000ED00620216800EAD51040F0F00008611C
:101FE00033463A460B49204600F070F878B902E0D3
:101FF00005F0FE0000E0E8B22168086105493346BB
:102000003A46891F204600F061F80028DCD0012004
:10201000F8BD00000800010070B516460D460446E4
:102020000DE02046FFF793FF08B1012070BD681C4A
:1020300005D0FEF7F7FA801BA84207D835B1206813
:102040004069C0434007ECD4002070BD002044F834
:10205000300F20216173A073216941F020012161BB
:102060002073E2E72DE9F0471E4690460D460446F0
:10207000C1F30747DDF8209008E0701C06D0FEF79A
:10208000D1FAA0EB0900B0420FD876B12068012F39
:1020900018D0806925EA00000004000C14D000214B
:1020A0004145EAD00020BDE8F087002044F8300F19
:1020B00020216173A073216941F020012161207307
:1020C0000120F0E74069E5E70121E9E72DE9F04764
:1020D0009A4691460E46044600254FF02008C1F36B
:1020E000074725E020684069C043400514D42068B4
:1020F000016841F40071016021686FF480604861FB
:10210000256384F83D8084F83E50206C40F0040044
:10211000206484F83C501FE0B9F1FF3F08D0FEF77F
:1021200081FAA0EB0A0149450CD8B9F1000F09D09A
:102130002068012F13D0806926EA00000004000CFB
:102140000BD0CFE744F8305F84F80D80A573206989
:1021500040F02000206125730120BDE8F087406930
:10216000EAE770B516460D4604460DE02046FFF737
:10217000EEFE08B1012070BD681C05D0FEF752FAD2
:10218000801BA84207D835B120684069C0430006CB
:10219000ECD4002070BD002044F8300F2021617382
:1021A000A073216941F0200121612073E2E7000062
:1021B00070B51E4D4FF480512846FEF729FA1C4C8D
:1021C000C000691420702846FEF722FA217841EAFF
:1021D000800020704FF480412846FEF719FA2178DC
:1021E00041EA400020704FF400412846FEF710FA03
:1021F0002178084320700F280DD00A20FEF706F939
:1022000020780F2807D0072807D00B2807D00D28E3
:1022100007D00E2807D0002070BD012070BD02201D
:1022200070BD032070BD042070BD0000000C014093
:10223000000000202DE9F0412F4E0024224601210C
:102240003046FEF7EAF9FFF7B3FF050005D000BFFF
:10225000FFF7AEFF0028FBD12C4601221146304685
:10226000FEF7DBF9254E4FF4004700223946304691
:10227000FEF7D3F9FFF79CFF050005D0FFF798FFA5
:102280000028FBD12D1DECB20122394635463046DF
:10229000FEF7C3F94FF48047002239462846FEF77F
:1022A000BCF9FFF785FF060006D000BFFFF780FFEF
:1022B0000028FBD10836F4B2012239462E462846C2
:1022C000FEF7ABF94FF40057002239463046FEF7CF
:1022D000A4F9FFF76DFF050006D000BFFFF768FF08
:1022E0000028FBD10C35ECB2012239463046FEF70E
:1022F00094F92046BDE8F08100080140001001403B
:1023000010B5142000F05DF8800705D10321BDE869
:102310001040142000F077B810BD7CB504460025AD
:1023200029460D2000F005F99320207020206070D0
:1023300001A823460090022219460C2000F06FF8F5
:10234000010009D1225C401C5540C0B20428F9D3D9
:10235000205CA84200D0022108467CBD70B50C4626
:10236000054600F02EF820EA04012846BDE870403A
:1023700000F0DFB810B500F042F88D212A2000F0FF
:10238000D8F83E212B2000F0D4F81E212D2000F09B
:10239000D0F800212C2000F0CCF87F21262000F07E
:1023A000C8F88421182000F0C4F84021152000F05E
:1023B000C0F83D21112000F0BCF8BDE81040FFF747
:1023C0009FBF7E2101EA400040F0800000F078BB12
:1023D0007CB50C46054607210D2000F0AAF82570B3
:1023E00001A823460090012219460C2000F017F89E
:1023F00018B9BDF80410102900D002207CBD0F21AF
:10240000012000F096B870B50C460546FFF7D9FFDD
:1024100040EA04012846BDE8704000F08AB82DE982
:10242000FF5F00270226DDF838A015468B4681465F
:10243000B8460C2805D0B9F10E0F05D1122710208F
:1024400001E077273020804647F08001022000F02D
:1024500070F880210420FFF781FF80210A20FFF718
:10246000D2FF0021012000F064F8002406E01BF8F0
:102470000410092000F05DF8641CA4B2AC42F6D34D
:102480004946012000F055F8B9F10C0F03D1802125
:102490000D20FFF7B8FF4FF4FA650420FFF791FF16
:1024A0006D1E2D0404462D0C04D0E00702D114EA61
:1024B000080FF2D080210D20FFF750FF35B1062024
:1024C000FFF77FFF10F01B0F04D0022604B0304648
:1024D000BDE8F09F00263C40E00700D00126B9F19E
:1024E0000C0FF3D10A20FFF76CFF04460C20FFF716
:1024F00068FF10F007004FEAC40104D0083908440F
:10250000AAF8000001E0AAF8001024B1102C04D9A8
:102510001024002503E00124FBE7002506E0092044
:10252000FFF74FFF039948556D1CADB2A542F6D396
:10253000CCE77E2202EA400000F0DABA2DE9F0434F
:1025400085B0002436480094019402940394816974
:1025500041F010018161816901F0100104918169EC
:1025600041F020018161816901F0200104918169BC
:1025700041F004018161816901F0040104918169E4
:1025800041F0080181618069264F00F008004FF496
:1025900060450490002229463846FEF73EF8DFF8F1
:1025A0008880002211214046FEF737F8DFF87C9042
:1025B000002210214846FEF730F80122202148462B
:1025C000FEF72BF80095022601250396CDE901546C
:1025D00069463846FDF72CFF1120CDE90005CDE90D
:1025E000024669464046FDF723FFCDE9005469469F
:1025F00048460294FDF71CFF4FF470408DE831000F
:1026000069464846FDF714FF3020CDE90005CDE9C5
:10261000024669464846FDF70BFF05B0BDE8F0836A
:10262000001002400010014000080140000C014071
:102630000D4810B50B4901600C49416000214FF471
:1026400080428160C0E9031241618161C161016220
:10265000FDF7EEFF002803D0BDE81040FDF787BE70
:1026600010BD00000054004008030020A0860100B7
:10267000104810B50E4901604FF48271416000218D
:102680008160C1604FF400720161C0E90512282227
:10269000C0E90721416281620A21C162FEF774FC30
:1026A000002803D0BDE81040FDF761BE10BD00005A
:1026B000003001405C03002010B58EB00024079468
:1026C000089409940A940B941C2168460C94FDF715
:1026D000A7FD1E484FF0804101604721C0E9011469
:1026E00044F62061C0E903148461FEF71BFE08B1C3
:1026F000FDF73DFE4FF48050079007A91348FEF701
:1027000093FE08B1FDF733FE1048FFF7D1F808B18A
:10271000FDF72DFE0B940BA90C480C94FEF7CEFD93
:1027200008B1FDF724FE6020CDE9000402940022E8
:10273000694606480494FFF758F808B1FDF717FEFC
:102740000248FFF721F80EB010BD0000B4030020CE
:1027500010B586B0002417480094019402940394A5
:1027600004941349059401604721C0E9011442F221
:102770000F71C0E903148461FEF7D4FD08B1FDF7C1
:10278000F6FD4FF48050009069460A48FEF74CFE73
:1027900008B1FDF7ECFD049404A906480594FEF782
:1027A0008DFD002801D0FDF7E2FD06B010BD000050
:1027B00000040040FC0300200C4810B50A490160E9
:1027C0004FF4E1314160002181600C22C160C0E919
:1027D00004128161C161FFF7EFF9002803D0BDE861
:1027E0001040FDF7C4BD10BD003801404404002076
:1027F0000C4810B50A4901604FF4E13141600021F5
:1028000081600C22C160C0E904128161C161FFF7DF
:10281000D3F9002803D0BDE81040FDF7A8BD10BDD6
:1028200000440040840400200C4810B50A490160AF
:102830004FF461414160002181600C22C160C0E918
:1028400004128161C161FFF7B7F9002803D0BDE828
:102850001040FDF78CBD10BD00480040C4040020AE
:10286000FEE7FEE7002000F001B8000030B4094C9C
:10287000002202EB8213002104EB43035854491C4D
:1028800089B28229FAD3521C92B2082AF1D330BC01
:1028900000F060B83405002010B54FF4FA70FDF771
:1028A000B5FDAE2000F04FFC202000F04CFC1020C5
:1028B00000F049FCB02000F046FC002000F043FC92
:1028C000102000F040FCC82000F03DFC402000F04B
:1028D0003AFC812000F037FCFF2000F034FCA120FE
:1028E00000F031FCA62000F02EFCA82000F02BFC0C
:1028F0003F2000F028FCA42000F025FCD32000F0AD
:1029000022FC002000F01FFCD52000F01CFCF02071
:1029100000F019FCD92000F016FC222000F013FC76
:10292000DA2000F010FC122000F00DFCDB2000F09B
:102930000AFC202000F007FC8D2000F004FC14208D
:1029400000F001FCAF2000F0FEFBBDE810400020CD
:10295000FFF78CBF2DE9F0410F4F002404F1B000C8
:10296000C0B200F0F0FB002000F0EDFB102000F002
:10297000EAFB04EB8410002507EB4006705D00F0D5
:10298000E6FB6D1CADB2822DF8D3641CA4B2082CFA
:10299000E4D3BDE8F08100003405002010B5044602
:1029A000B031C8B200F0CFFB102040EA141000F0A4
:1029B000CAFB04F00F00BDE8104040F0010000F039
:1029C000C2BB00002DE9F047002591468A46044627
:1029D000012B22D0DFF8BC80022B24D155E0203817
:1029E000C7B27E2C04D90AF10100002400F0FF0ACE
:1029F00051462046FFF7D2FF07EB4700002608EBC1
:102A00004007B85D00F0A3FB761CF6B2062EF8D3A3
:102A1000A41D6D1CE4B2EDB201E0DFF87C8019F872
:102A200005000028DBD1BDE8F0872038C7B2782C3C
:102A300004D90AF10100002400F0FF0A51462046A3
:102A4000FFF7ACFF5FF0000606EB071118F8010076
:102A500000F07DFB761CF6B2082EF5D30AF10100DA
:102A6000C1B22046FFF79AFF5FF0000606EB0711A0
:102A700001EB0800007A00F06AFB761CF6B2082E23
:102A8000F4D308346D1CE4B2EDB219F80500002847
:102A9000CBD1C8E7343900080C3700087047000074
:102AA0000EB501238DF804000A20009002AA01A9A6
:102AB0000248FEF7FBFA9DF808000EBD5C030020FB
:102AC00070B50A4D0446002210212846FDF7A5FDE9
:102AD0002046FFF7E5FF0020FFF7E2FF0446012252
:102AE00010212846FDF799FD204670BD00080140E1
:102AF00070B50A4C0E460546002210212046FDF70F
:102B00008CFD2846FFF7CCFF3046FFF7C9FF204673
:102B1000BDE8704001221021FDF77FBD0008014093
:102B200038B50B46009204460022802100F008F8D8
:102B3000002804D0606D40F020006065032038BD9F
:102B40002DE9F8431E46914688460446089DFDF748
:102B500069FD401B351AFDF765FD074625480068ED
:102B6000C0F3CB30684338E0701C37D0FDF75AFD16
:102B7000C01BA84203D215B1009860B32CE02068B6
:102B8000416821F0E00141606068B0F5827F0BD1BF
:102B9000A068B0F5004F02D0B0F5806F04D1206876
:102BA000016821F040010160A06AB0F5005F09D121
:102BB0002068016821F4005101602068016841F437
:102BC00000510160012084F85100002084F8500079
:102BD0000320BDE8F8830025401E0090206881682E
:102BE00038EA010004D000214945BDD10020F0E7BA
:102BF0000121F9E7800000207047FDF7B1BE30B534
:102C00008FB028216846FDF70BFB14210AA8FDF7B9
:102C100007FB01210804CDE90010002402940225DD
:102C20000491CDE907504FF4E01009906846FEF793
:102C30001BF808B172B6FEE70F20CDE90A054FF484
:102C40008060CDE90C4002210AA80E94FDF720FF18
:102C5000002801D072B6FEE70FB030BD704700000B
:102C60000148FEF7DDBC0000FC030020F0B502685F
:102C7000164B174C174D4FF08047984205D0B8427D
:102C800003D0A04201D0A84203D122F070064A68C6
:102C90003243984205D0B84203D0A04201D0A842A6
:102CA00003D122F44074CA6822434C6922F08002A6
:102CB000224302608A68C2620A688262984201D135
:102CC0000969016301214161F0BD0000002C014050
:102CD000000400400008004010B501F01F0301216E
:102CE000046A99408C430462016A9A40114301626C
:102CF00010BD10B5846842EA032224F47F440A43DD
:102D00002243826010BD826822F070020A4342F0C2
:102D1000070181607047000030B5026A22F00102AD
:102D20000262026A4368846924F073050C682C43CC
:102D300022F002058A682A430A4DA8420BD122F0EC
:102D40000805CA6823F440732A434D6922F004023F
:102D50001D438B692B434360846149684163026270
:102D600030BD0000002C014030B5026A22F0100294
:102D70000262026A436884690D6824F4E64444EA06
:102D800005248D6822F0200242EA05120B4DA8426C
:102D90000ED1CD6822F0800242EA05124D6923F47B
:102DA000406343EA85038D6922F0400243EA8503CC
:102DB0004360846149688163026230BD002C014038
:102DC00030B5026A22F480720262036A4268C46902
:102DD00023F4007324F073050C682C438D6843EAD8
:102DE00005230C4DA8420ED1CD6823F4006343EABD
:102DF00005234D6922F4405242EA05128D6923F4FD
:102E0000806342EA05124260C4614968C16303629B
:102E100030BD0000002C014030B5026A22F480521F
:102E20000262046A4268C3690D6823F4E64343EA18
:102E300005238D6824F4005444EA0534064DA84265
:102E400004D14D6922F4804242EA85124260C36196
:102E500049680164046230BD002C014010B5036A6A
:102E6000046A24F001040462846924F0F00444EA52
:102E7000021423F00A020A438461026210BD10B5F5
:102E8000036A23F0100303628369046A23F4704326
:102E900043EA023224F0A00343EA01118261016295
:102EA00010BD10B5406A0021C185C184FEF7D0FD78
:102EB00010BD0168CA6822F49072CA6001684A694C
:102EC00022F001024A61202180F83A10704710B5C3
:102ED00090F83A10222901D0022010BD82684FF4E8
:102EE00080539A4201D1016921B1816A9A421BD073
:102EF0004AB10AE00268816A5268C2F308020A8095
:102F0000816A891C08E0026972B10268526802F0A5
:102F10007F020A70816A491C8162C18D491E0904C1
:102F2000090CC18503D016E002685268F1E7016818
:102F3000CA6822F02002CA600168CA6822F480725E
:102F4000CA6001684A6922F001024A61202180F8C2
:102F50003A10FEF727FF002010BD000070B50446B0
:102F600000680169E26821F440511143016121695F
:102F7000A0680843616908432168CA6841F20C638C
:102F80009A430243CA6020684169A26921F44071F2
:102F9000114341611E492068884202D1FDF71EFE9F
:102FA00001E0FDF70BFE00EBC00101EB00126068D1
:102FB00064218000B2FBF0F3B3FBF1F36FF018066D
:102FC0007343B2FBF0F5B2FBF0F605EB8305322359
:102FD00003EB0515B5FBF1F5B6FBF1F605F0F005D1
:102FE00005EB0615B2FBF0F6B2FBF0F0B0FBF1F02A
:102FF0006FF01802504306EB800003EB0010B0FBAB
:10300000F1F0216800F00F002844886070BD0000D6
:10301000003801402DE9F041984617460E46044617
:10302000069D1DE0681C1BD02DB1FDF7FBFAA0EB3F
:103030000800A84214D92068C16821F4D071C16089
:103040002068416921F001014161202084F83900A4
:1030500084F83A00002084F838000320BDE8F081AD
:103060002068006836EA000004D00020B842D9D0B9
:103070000020F3E70120F9E770B500240C4D0D485E
:10308000FEF7ECFC02E0641CAC4204D80948FEF7F1
:10309000E0FC2028F7D1002402E0641CAC4206D8F2
:1030A000012205490348FEF753FE0028F5D170BD03
:1030B000FFFF0100440400200100002070B500243F
:1030C0000C4D0D48FEF7CAFC02E0641CAC4204D86B
:1030D0000948FEF7BEFC2028F7D1002402E0641C5A
:1030E000AC4206D8012205490348FEF731FE00280C
:1030F000F5D170BDFFFF0100840400200300002013
:1031000070B500240C4D0D48FEF7A8FC02E0641CCD
:10311000AC4204D80948FEF79CFC2028F7D10024D3
:1031200002E0641CAC4206D8012205490348FEF7C0
:103130000FFE0028F5D170BDFFFF0100C404002080
:1031400005000020FEE701460020FDF7F9BB01461F
:103150004020FDF7F5BB0907090E002804DB00F14C
:10316000E02080F80014704700F00F0000F1E0202C
:1031700080F8141D704700002DE9FE430024FFF77E
:1031800071FB0021022318A20846FFF71BFC002751
:103190006E464FF02A0802ADFFF74CF858B128559B
:1031A000301906F80480477002236A460A2100207D
:1031B000FFF708FC641C042CEEDB0F4900202A5C9E
:1031C0000A54401C0428FADBFFF74CFB00210223C1
:1031D0000AA20846FFF7F6FB4FF4FA70FDF716F95E
:1031E000FFF740FBBDE8FE836E6577207061737367
:1031F000776F726400000000180000205061737344
:10320000776F7264206368616E6765640000000018
:103210001FB50AA410281ECC8DE81E000B4A694673
:1032200002D23023137005E001EB101300F00F0001
:103230001B781370085C50701FBD000030313233B2
:10324000343536373839414243444546EC02002094
:10325000034A0020411C1154401C0428FADB70472B
:1032600018000020FDF784FBFFF7C9FCFFF766F9A3
:10327000FFF7A2FAFFF7BCFAFFF7D6FAFFF7D8F983
:10328000FFF7F6F9FFF764FAFFF716FAFFF772F89F
:103290009C48FEF79DF801229B499C48FEF758FD8B
:1032A00099490122891C9A48FEF752FD964901224C
:1032B000091D9848FEF74CFD00219748FEF728FBB2
:1032C000FFF7EAFAFFF7CEFA022394A20A2123209D
:1032D000FFF778FBFFF7BCFFDFF82CA2DFF844B262
:1032E000AAF1010A904F4FF000090AF13B060223B0
:1032F0008EA20A212320FFF765FBFEF79BFF5446B1
:10330000CAF814000D2801D100F04EF9A06801049C
:1033100022D5C0B2A0704946C4F8089007281BD334
:10332000844A115484A11046FCF7A2FFA0B90223DD
:1033300083A20A212320FFF745FB774D40F2DC50A2
:10334000296848634FF47A70FDF760F829684FF4F4
:10335000FA704863FFF786FAE06801042DD5C0B221
:1033600020714946C4F80C90232826D3714AC832EC
:10337000115475A11046FCF77BFF30B16D487BA15D
:10338000C830FCF775FFB0B117E002236CA20A2128
:103390002320FFF717FB604D40F2DC50296848639B
:1033A0004FF47A70FDF732F829684FF4FA704863E9
:1033B000FFF758FA01E0FFF7DFFEDBF808005D4693
:1033C000012808D15049322311221F315148FEF7FC
:1033D00063FDC5F80890206901041FD5C0B2A07133
:1033E0004946C4F810900A2818D34F4AD23A1154CB
:1033F00045494D480A223031D238FCF7E5FE4FF0FE
:103400000203E0B166A20A212320FFF7DBFA4FF4A2
:103410007A70FCF7FBFF00BFFFF724FA3A4912224B
:103420005E31A1F12400FCF7CFFED8B1364912225B
:103430004C31A1F11200FCF7C7FE48B338E040A2BE
:103440000A212320FFF7BEFA334C40F2DC502168FA
:1034500048634FF47A70FCF7D9FF21684FF4FA7093
:103460004863D9E7FFF7FEF9022335A20A2123209A
:10347000FFF7A8FA284C40F2DC50216848634FF46B
:103480007A70FCF7C3FF21684FF4FA7048630BE0D1
:10349000FFF7E8F9022342A20A212320FFF792FA5C
:1034A0004FF47A70FCF7B2FFFFF7DCF9FF203070C1
:1034B0001D492620FEF78CFF00287FF418AF1A481C
:1034C000FEF72BFF0028F8D100240F4920461B31BE
:1034D0003A5C0A54401C0428FADBDFF84C800025D3
:1034E000A8F10A08785DFFF793FE98F800103155AF
:1034F000641C98F801003055641C6D1C042DF1DB30
:10350000F5E60000FC030020010000204404002038
:1035100084040020C4040020B4030020696E697490
:103520000000000004050020F60200204C4F434B31
:1035300000000000940000207375636365737300DE
:1035400070617373000000002B4D51545453554269
:10355000524543563A302C22736D617274686F6D18
:10356000652F6C6F636B222C312C31002B4D515425
:1035700054535542524543563A302C22736D617272
:1035800074686F6D652F6C6F636B222C31332C72F6
:103590006573657470617373776F72640000000007
:1035A0006661696C000000002DE9FE430024FFF70E
:1035B00059F90021022328A20846FFF703FA002741
:1035C0006E464FF02A0802ADFEF734FE58B128557A
:1035D000301906F80480477002236A460A21002049
:1035E000FFF7F0F9641C042CEEDB1F4E00244FF4AF
:1035F000FA77285D315D884208D0FFF733F9002162
:1036000002231AA20846FFF7DDF901E0032C09D0D6
:10361000641C042CEDDB3846FCF7F8FEFFF722F9BA
:10362000BDE8FE839DF80B00F1788842F3D1FFF7E7
:1036300019F90021022311A20846FFF7C3F9144C1F
:1036400040F2DC50216848634FF47A70FCF7DEFEEC
:1036500020684763DFE70000456E74657220706183
:103660007373776F726400001800002050617373E9
:10367000776F72642077726F6E67000050617373AA
:10368000776F726420636F7272656374000000006C
:10369000B403002000000000000000000102030449
:1036A0000607080900000000010203041060028CF4
:1036B0000000FE9292929292FE00000004047E01AD
:1036C000407E42427E427E42427E40000000FC2418
:1036D0002424FC252624FC242424040040308F804C
:1036E000844C55252525554C808080001060028C27
:1036F00000FE929292929292FE00000004047E01DB
:103700004448507F40407F50484440000000000043
:1037100000000000002F0000000007000700001458
:103720007F147F1400242A7F2A1200626408132366
:1037300000364955225000000503000000001C22FD
:103740004100000041221C000014083E081400083B
:10375000083E0808000000A06000000808080808EB
:10376000000060600000002010080402003E514983
:10377000453E0000427F4000004261514946002121
:1037800041454B31001814127F100027454545393B
:10379000003C4A4949300001710905030036494996
:1037A000493600064949291E00003636000000004F
:1037B000563600000008142241000014141414149A
:1037C0000000412214080002015109060032495943
:1037D000513E007C1211127C007F49494936003E5F
:1037E00041414122007F4141221C007F494949411A
:1037F000007F09090901003E4149497A007F080814
:10380000087F0000417F4100002040413F01007FD0
:1038100008142241007F40404040007F020C027F9C
:10382000007F0408107F003E4141413E007F0909AE
:103830000906003E4151215E007F091929460046D4
:10384000494949310001017F0101003F4040403FAB
:10385000001F2040201F003F4038403F00631408F5
:1038600014630007087008070061514945430000D0
:103870007F41410000552A552A55000041417F00F3
:1038800000040201020400404040404000000102E8
:103890000400002054545478007F484444380038D1
:1038A0004444442000384444487F00385454541859
:1038B00000087E0901020018A4A4A47C007F08046B
:1038C00004780000447D4000004080847D00007F3B
:1038D000102844000000417F4000007C0418047858
:1038E000007C0804047800384444443800FC242454
:1038F00024180018242418FC007C0804040800483C
:103900005454542000043F444020003C4040207C5C
:10391000001C2040201C003C4030403C004428104B
:103920002844001CA0A0A07C004464544C441414FF
:103930001414141400000000000000000000000037
:1039400000000000000000F800000000000000334C
:103950003000000000100C06100C060000000000F3
:103960000000000040C07840C0784000043F0404DC
:103970003F040400007088FC08300000001820FF9D
:10398000211E0000F008F000E018000000211C03D8
:103990001E211E0000F00888700000001E21232454
:1039A0001927211010160E00000000000000000072
:1039B00000000000000000E0180402000000000702
:1039C0001820400000020418E00000000040201809
:1039D00007000000404080F0804040000202010FDC
:1039E00001020200000000F0000000000101011FC0
:1039F00001010100000000000000000080B0700024
:103A000000000000000000000000000000010101B3
:103A10000101010100000000000000000030300042
:103A2000000000000000000080601804006018061C
:103A30000100000000E010080810E000000F102056
:103A400020100F00001010F8000000000020203FA0
:103A5000202000000070080808887000003028242A
:103A600022213000003008888848300000182020CB
:103A700020110E000000C02010F8000000070424F0
:103A8000243F240000F80888880808000019212035
:103A900020110E0000E0108888180000000F11208F
:103AA00020110E0000380808C83808000000003F48
:103AB000000000000070880808887000001C2221A7
:103AC00021221C0000E010080810E0000000312254
:103AD00022110F00000000C0C000000000000030F4
:103AE0003000000000000080000000000000806046
:103AF00000000000000080402010080000010204C7
:103B000008102000404040404040400004040404AD
:103B10000404040000081020408000000020100869
:103B200004020100007048080808F000000000309E
:103B300036010000C030C828E810E000071827242C
:103B400023140B000000C038E0000000203C2302DA
:103B50000227382008F8888888700000203F20203D
:103B600020110E00C030080808083800071820206F
:103B70002010080008F808080810E000203F202066
:103B800020100F0008F88888E8081000203F202047
:103B90002320180008F88888E8081000203F20003B
:103BA00003000000C0300808083800000718202073
:103BB000221E020008F808000008F808203F210132
:103BC00001213F20000808F8080800000020203FDD
:103BD0002020000000000808F8080800C08080804D
:103BE0007F00000008F888C028180800203F200146
:103BF0002638200008F8080000000000203F2020A0
:103C00002020300008F8F800F8F80800203F003FB6
:103C1000003F200008F830C00008F808203F2000CE
:103C200007183F00E01008080810E0000F102020DF
:103C300020100F0008F808080808F000203F2101B4
:103C400001010000E01008080810E0000F1824240B
:103C500038504F0008F8888888887000203F20007E
:103C6000030C302000708808080838000038202134
:103C700021221C00180808F8080818000000203F3E
:103C80002000000008F808000008F808001F2020A5
:103C900020201F000878880000C838080000073876
:103CA0000E010000F80800F80008F800033C0700C7
:103CB000073C0300081868808068180820302C032F
:103CC000032C30200838C800C83808000000203F06
:103CD0002000000010080808C838080020382621F5
:103CE00020201800000000FE020202000000007FF9
:103CF00040404000000C30C0000000000000000107
:103D00000638C00000020202FE00000000404040F1
:103D10007F00000000000402020204000000000016
:103D20000000000000000000000000008080808093
:103D3000808080800002020400000000000000007B
:103D40000000000000008080808000000019242214
:103D500022223F2008F8008080000000003F112050
:103D600020110E000000008080800000000E112055
:103D700020201100000000808088F800000E112033
:103D800020103F200000808080800000001F222241
:103D900022221300008080F0888888180020203FAD
:103DA000202000000000808080808000006B9494C0
:103DB0009493600008F8008080800000203F21007C
:103DC00000203F2000809898000000000020203F45
:103DD00020200000000000809898000000C0808033
:103DE000807F000008F8000080808000203F2402CF
:103DF0002D302000000808F8000000000020203FBF
:103E0000202000008080808080808000203F200073
:103E10003F20003F8080008080800000203F210004
:103E200000203F200000808080800000001F2020B4
:103E300020201F00808000808000000080FFA120E3
:103E400020110E000000008080808000000E1120F4
:103E500020A0FF80808080008080800020203F2183
:103E60002000010000008080808080000033242436
:103E700024241900008080E0808000000000001FE2
:103E8000202000008080000000808000001F202093
:103E900020103F20808080000080808000010E3054
:103EA0000806010080800080008080800F300C03B5
:103EB0000C300F0000808000808080000020312EB8
:103EC0000E312000808080000080808080818E7094
:103ED0001806010000808080808080000021302C46
:103EE0002221300000000000807C0202000000005F
:103EF000003F404000000000FF0000000000000004
:103F0000FF0000000002027C800000000040403FF3
:103F1000000000000006010102020404000000008D
:103F200000000000443F0008000000209400000052
:103F300028010008D83F000894000020140F00005A
:103F400044010008FF000000000000000000000025
:103F50000000000000000000000000000000000061
:103F600000000000EF01FFFFFFFF0100083202FF29
:103F7000FF00050240EF01FFFFFFFF0700080030D0
:103F800030303030303030000000000000000000E1
:103F9000004333443142423046000000000000003C
:103FA000000000303330423830313600000000006D
:103FB00000000000000000000100000010000000F0
:103FC000000000000024F4000000000000000000D9
:083FD0000000000000000000E9
:04000005080000ED02
:00000001FF
