:020000040800F2
:10000000D00A0020890100089B190008DD170008AC
:100010009919000827030008A11D0008000000002E
:100020000000000000000000000000009F19000810
:1000300029030008000000009D190008A11900080C
:10004000A3010008A3010008A3010008A301000800
:10005000A3010008A3010008A3010008A3010008F0
:10006000A3010008A3010008A3010008A3010008E0
:10007000A3010008A3010008A3010008A3010008D0
:10008000A3010008A3010008A3010008A3010008C0
:10009000A3010008A3010008A3010008A3010008B0
:1000A000A3010008A3010008A3010008A3010008A0
:1000B000A3010008051A0008A3010008A301000815
:1000C000A3010008A3010008A3010008A301000880
:1000D000A3010008D51C0008191D00085D1D0008BB
:1000E000A3010008A3010008A301000800F002F822
:1000F00000F03AF80AA090E8000C82448344AAF188
:100100000107DA4501D100F02FF8AFF2090EBAE885
:100110000F0013F0010F18BFFB1A43F0010318473B
:100120002824000048240000103A24BF78C878C171
:10013000FAD8520724BF30C830C144BF04680C60ED
:10014000704700000023002400250026103A28BF35
:1001500078C1FBD8520728BF30C148BF0B60704739
:100160001FB51FBD10B510BD00F0A3F81146FFF775
:10017000F7FF01F027FE00F0C1F803B4FFF7F2FF2C
:1001800003BC00F0C9F8000009488047094800474F
:10019000FEE7FEE7FEE7FEE7FEE7FEE7FEE7FEE737
:1001A000FEE7FEE704480549054A064B7047000094
:1001B000031A0008ED000008D0040020D00A002037
:1001C000D0060020D006002040EA010310B59B07AE
:1001D0000FD1042A0DD310C808C9121F9C42F8D0B1
:1001E00020BA19BA884201D9012010BD4FF0FF3062
:1001F00010BD1AB1D30703D0521C07E0002010BD78
:1002000010F8013B11F8014B1B1B07D110F8013B03
:1002100011F8014B1B1B01D1921EF1D1184610BDE4
:1002200010B5431C02E010F8011B71B18107FAD12F
:100230004FF0013202C88C1A8C4314EAC211F9D073
:10024000C01A0A0603D0C01E10BDC01A10BD0A0491
:1002500001D0801E10BD0902FCD0401E10BD4FF021
:10026000000200B5134694469646203922BFA0E806
:100270000C50A0E80C50B1F12001BFF4F7AF090712
:1002800028BFA0E80C5048BF0CC05DF804EB890003
:1002900028BF40F8042B08BF704748BF20F8022B46
:1002A00011F0804F18BF00F8012B7047704770475E
:1002B0007047754600F02CF8AE4605006946534677
:1002C00020F00700854618B020B5FFF76BFFBDE8AA
:1002D00020404FF000064FF000074FF000084FF0AD
:1002E000000B21F00701AC46ACE8C009ACE8C0093E
:1002F000ACE8C009ACE8C0098D46704710B50446AB
:10030000AFF300802046BDE81040FFF736BF000085
:10031000004870477004002001491820ABBEFEE77A
:10032000260002007047FEE77047000070B540F6F7
:10033000B83000F0FFF8254C00254FF4FA76A560A0
:1003400005E023A001F014FB304600F0F3F820890B
:100350000004F6D5304600F0EDF8A56005E020A0D9
:1003600001F006FB304600F0E5F820890004F6D5E0
:100370004FF4FA6000F0DEF8A56005E020A001F07F
:10038000F7FA304600F0D6F820890004F6D530465A
:1003900000F0D0F8A56005E027A001F0E9FA3046AA
:1003A00000F0C8F820890004F6D54FF47A7000F008
:1003B000C1F8A56005E02AA001F0DAFA304600F0A5
:1003C000B9F820890004F6D5A56070BD00000020B2
:1003D00041542B43574D4F44453D310D0A00000019
:1003E00041542B43574A41503D226C696E222C22C6
:1003F000323130363239393339220D0A00000000EB
:1004000041542B4D515454555345524346473D306A
:100410002C312C227573657232222C227363726523
:10042000656E222C2270617373776F7264222C3098
:100430002C302C22220D0A0041542B4D5154544390
:100440004F4E4E3D302C2234372E39352E31373138
:100450002E313531222C313838332C310D0A000041
:1004600041542B4D5154545055423D302C22736D04
:10047000617274686F6D652F6C6976696E67726FF3
:100480006F6D2F4C4344222C22696E6974222C30EC
:100490002C300D0A0000000072B6FEE710B590F88F
:1004A00021100024022903D00421816301243DE0AE
:1004B00001680A6822F00E020A6001680A6822F0E8
:1004C00001020A601A4A0168914201D1012121E02A
:1004D000174A1432914201D110211BE0144A2832EC
:1004E000914201D1891515E0114A3C32914201D166
:1004F00089140FE00E4A5032914202D14FF48031FC
:1005000008E00B4A6432914202D14FF4801101E0BD
:100510004FF08071064A083A5160012180F821109D
:10052000002180F82010416B01B18847204610BDA2
:100530000800024070B5044600F008F90546601C4A
:1005400002D004480078044400F000F9401BA042A7
:10055000FAD370BDB40000202DE9F84FDFF8B89150
:10056000002409F1040A0AF1040B23460F270BF1BA
:10057000040EC9E00125A5402A40AA427DD1674E5C
:10058000D1F804C0ACEB0608B44532D014DCBCF1A1
:10059000030F3AD009DCBCF1000F2AD0BCF1010FE7
:1005A0001CD0BCF1020F31D11DE0BCF1110F17D0EE
:1005B000BCF1120F2AD119E0B8F5881F19D006DC5A
:1005C000B8F5803F15D0B8F5801F1FD111E0B8F500
:1005D000001F0ED0B8F5041F18D10AE0CB6815E053
:1005E000CB681B1D12E0CB6808330FE0CB680C33DF
:1005F0000CE08B682BB1012B4FF0080303D0456151
:1006000004E0042302E0056100E00023FF2A01D892
:10061000064601E000F104064FEA840501D9A5F180
:100620002005D6F8008007FA05FC28EA0C0803FA32
:1006300005F548EA0508C6F800804D68ED0062D56A
:10064000374DAE6946F00106AE61AD6924F0030690
:1006500005F001050095334D06EB050CDCF808505C
:10066000A607360F07FA06F825EA0805DFF8B8806E
:10067000404503D14FF0000817E044E0DFF8AC80BC
:10068000404502D14FF001080FE0DFF8A48040455B
:1006900002D14FF0020808E0DFF89880404502D10F
:1006A0004FF0030801E04FF0040808FA06F848EAA2
:1006B0000508CCF808804D68D9F80060ED034D4678
:1006C00001D5164300E096432E604D68DAF80060CD
:1006D000AD03554601D5164300E096432E604D68A4
:1006E000DBF80060ED025D4601D5164300E096435D
:1006F0002E604D68DEF80060AD02754601D51643E8
:1007000000E096432E60641C0D682A46E5407FF4A5
:1007100031AFBDE8F88F0000000401400000111067
:10072000001002400000014000080140000C0140A0
:1007300000100140001401408068084000D00120F2
:1007400070470AB1016170470904FBE701488068FE
:1007500070470000B400002002488168027811440C
:1007600081607047B4000020074810B5016841F06F
:1007700010010160032000F075F80F2000F006F86A
:1007800000F024F8002010BD0020024070B50D4D8F
:1007900004464FF47A712878B1FBF0F00A490968F1
:1007A000B1FBF0F000F0ECFA48B9102C07D20022AF
:1007B0002146501E00F036F800206C6070BD01200C
:1007C00070BD0000B4000020C00000200C4808B537
:1007D000816941F001018161816901F001010091AC
:1007E000C16941F08051C161C06900F08050009042
:1007F0000448416821F0E06141F00071416008BDAA
:100800000010024000000140002809DB00F01F0238
:10081000012191404009800000F1E020C0F8001162
:1008200070470000F0B40E4B1B680C46C3F3022364
:10083000C3F10705042D00D90425191D072901D28C
:10084000002300E0DB1E012606FA05F1491E2140C7
:1008500099409E40761E16403143F0BC01F0A1BA8B
:100860000CED00E0064900F0070208684FF6FF03B0
:10087000184040EA0220034A104308607047000015
:100880000CED00E00000FA052DE9F0470F460500E9
:1008900061D0434E306800F00700B84209D230689A
:1008A00020F0070038433060306800F00700B8429D
:1008B00051D128683B4C810712D5400703D56068A9
:1008C00040F4E06060602878000703D5606840F479
:1008D000605060606068A96820F0F00008436060C4
:1008E0002878C00728D06868012810D0216802281D
:1008F00010D0890700292EDA616821F00301014335
:100900006160FFF723FF804641F288390DE02168DE
:100910008903EFE78901EDE7FFF718FFA0EB080176
:10092000494502D90320BDE8F0876068696800F096
:100930000C00B0EB810FEFD1306800F00700B84237
:100940000BD9306820F0070038433060306800F081
:100950000700B84201D00120E5E72878400705D517
:100960006068E96820F4E060084360602878000768
:1009700006D56068296920F4605040EAC1006060D3
:1009800000F038F86168084AC1F30311515CC840AF
:100990000649086006480068FFF7F8FE0020C2E735
:1009A000002002400010024030250008C000002056
:1009B000B80000200448054900684968044AC1F3AA
:1009C0000221515CC8407047C00000200010024066
:1009D000402500080448054900684968044AC1F3F5
:1009E000C221515CC8407047C00000200010024086
:1009F0004025000812A185B00FC98DE80F0014A092
:100A0000144A006804905168134801F00C03042B49
:100A100010D0082B0ED1C1F38343C9031DF8030086
:100A20000AD5516804AAC1F34041515C0A4A5043B7
:100A3000B0FBF1F005B0704708494843FAE7000001
:100A400002030405060708090A0B0C0D0E0F10100F
:100A5000010200000010024000127A0000093D006F
:100A60002DE9F84F040070D02078C04DC00749D060
:100A70006868C0F38100012807D06868C0F381006E
:100A8000022809D16868C00306D52868800339D5D3
:100A900060680028E7D035E06068B0F5803F0BD093
:100AA00010B1B0F5A02F11D0286820F48030286054
:100AB000286820F4802002E0286840F48030286014
:100AC000606890B1FFF742FE06460AE0286840F4ED
:100AD00080202860F0E700BFFFF738FE801B642805
:100AE00073D828688003F7D50CE0FFF72FFE064681
:100AF00005E000BFFFF72AFE801B6428F0D82868B5
:100B00008003F7D420789A4E80074FF001094FF008
:100B1000000839D5686810F00C0F07D06868C0F37A
:100B20008100022809D16868C00306D428688007BC
:100B300014D52069012808D110E02069B0B1C6F8A9
:100B40000090FFF703FE074605E00AE1FFF7FEFD10
:100B5000C01B0228C4D828688007F7D528686169B7
:100B600020F0F80040EAC10028600DE0C6F80080DF
:100B7000FFF7ECFD074604E0FFF7E8FDC01B022885
:100B800023D828688007F7D4207800072CD5794827
:100B9000A169D9B1C0F80090FFF7D8FD074604E07D
:100BA000FFF7D4FDC01B02280FD8686A8007F7D56D
:100BB00071484FF4FA510068B0FBF1F0009000BFAB
:100BC0000098411E0091FAD20EE080E0C0F800804B
:100BD000FFF7BCFD074604E0FFF7B8FDC01B022885
:100BE00075D8686A8007F7D42078400760D5E8692F
:100BF0000027C00008D4E86940F08050E861E86947
:100C0000012700F0805000905C480168C90513D4AA
:100C10000168834641F480710160FFF797FD8246C9
:100C200006E000BFFFF792FDA0EB0A0064284ED853
:100C3000DBF80000C005F5D5E06801280AD008B14E
:100C4000052813D0286A20F001002862286A20F0C5
:100C5000040002E0286A40F001002862E06841F2E6
:100C6000883B98B1FFF772FD82460BE0286A40F09E
:100C700004002862EEE700BFFFF768FDA0EB0A0161
:100C800059455AD8286A8007F6D50CE0FFF75EFD73
:100C9000824605E0FFF75AFDA0EB0A0159454CD802
:100CA000286A8007F6D41FB1E86920F08050E86117
:100CB000E06988B36968C1F38101022944D0022840
:100CC000C6F8608004D0FFF741FD044638E034E008
:100CD000FFF73CFD074604E0FFF738FDC01B022884
:100CE0002BD828688001F7D4206AB0F5803F05D161
:100CF0006868A16820F4003008436860D4E90801FE
:100D00000843696821F4741108436860C6F860906C
:100D1000FFF71CFD044606E025E000BFFFF716FDC7
:100D2000001B022809D828688001F7D51BE000BF06
:100D3000FFF70CFD001B022802D90320BDE8F88F45
:100D400028688001F4D40EE00128F7D06868226A90
:100D500000F48031914204D1616A00F4701088423D
:100D600001D00120EAE70020E8E70000001002407F
:100D70000000424280044242C00000200070004057
:100D800010B5401EB0F1807F01D3012010BD4FF09F
:100D9000E02460610F21601701F003F80020A061DA
:100DA00007202061002010BD7047704770B590F893
:100DB0003C20012A26D0012480F83C40022280F801
:100DC0003D2003685A689D6822F070060A68324325
:100DD0005A600D4B02689A4208D0B2F1804F05D09C
:100DE0000A4B9A4202D00A4B9A4204D1496825F034
:100DF00080031943916080F83D40002180F83C1049
:100E0000084670BD022070BD002C01400004004067
:100E10000008004010B5040003D094F83D0010B164
:100E200007E0012010BD002084F83C00204600F0BF
:100E30001FF8022084F83D00211D206800F0E8FD25
:100E4000012084F8460084F83E0084F83F0084F8CE
:100E5000400084F8410084F8420084F8430084F89C
:100E6000440084F8450084F83D00002010BD0000D7
:100E700008B500680B49884212D10B48C16941F09E
:100E80000201C161C069002200F002000090114619
:100E90001D20FFF7C7FCBDE808401D20FFF7B4BCCC
:100EA00008BD0000000400400010024090F83D1012
:100EB000012901D001207047022180F83D1001680E
:100EC000CA6842F00102CA6000680B49884208D033
:100ED000B0F1804F05D00949884202D008498842C4
:100EE00004D1816801F00701062903D0016841F0AF
:100EF0000101016000207047002C01400004004007
:100F00000008004070B5044690F83C00012817D056
:100F1000012584F83C50022084F83D002068826856
:100F200022F0770222F47F4282600868502830D095
:100F30000DDC20284DD005DC98B310283BD148E0CB
:100F4000022070BD302844D0402834D139E06028D8
:100F500028D0702806D0B0F5805F2CD0B0F5005FA7
:100F600029D10AE0CB68D1E90121206800F093FD86
:100F70002068816841F0770109E0CB68D1E901215F
:100F8000206800F088FD2068816841F4804181601C
:100F900011E0CA684968206800F08FFD5021206880
:100FA00007E016E0CA684968206800F097FD6021F4
:100FB000206800F07AFD84F83D50002084F83C0061
:100FC00070BDCA684968206800F077FD402120683C
:100FD000EFE7226801461046EBE7000010B5044633
:100FE00000680B49884212D10021204600F064F9C4
:100FF00008490022086023685A62074AB2FBF0F0F1
:1010000048602046BDE81040002100F007B810BD40
:1010100000040040C400002040420F0010B5044608
:1010200051B104290DD0082910D094F8410094F84A
:101030004520012811D10EE094F83E0094F842209A
:10104000F7E794F83F0094F84320F2E794F8400063
:1010500094F84420EDE7012A01D0012010BD0220C0
:1010600019B3042926D0082929D084F8410084F82E
:1010700045000122206800F001FD134920688842E4
:1010800008D0B0F1804F05D01049884202D01049F5
:10109000884204D1816801F00701062903D0016864
:1010A00041F001010160002010BD84F83E0084F889
:1010B0004200DEE784F83F0084F84300D9E784F873
:1010C000400084F84400D4E7002C014000040040B4
:1010D0000008004070B50446006801694FF0000543
:1010E000C943890715D4C168C943890711D4E91ECA
:1010F000016101202077206880698007204602D0A6
:10110000FFF76CFF04E000F098F8204600F096F836
:10111000257720680169C943490717D4C168C943C5
:10112000490713D46FF00401016102202077206881
:10113000806910F4407F204602D0FFF74FFF04E0A3
:1011400000F07BF8204600F079F8257720680169E7
:10115000C943090716D4C168C943090712D46FF0FF
:1011600008010161042020772068C06980072046BB
:1011700002D0FFF733FF04E000F05FF8204600F0F4
:101180005DF8257720680169C943C90617D4C1688D
:10119000C943C90613D46FF01001016108202077FC
:1011A0002068C06910F4407F204602D0FFF716FF88
:1011B00004E000F042F8204600F040F8257720686F
:1011C0000169C943C90708D1C168C943C90704D126
:1011D000891E0161204600F033F820680169C94387
:1011E000090609D4C168C943090605D46FF0800116
:1011F00001612046FFF7D8FD20680169C94349060F
:1012000009D4C168C943490605D46FF040010161A2
:10121000204600F066F820680169C94389060BD4AE
:10122000C168C943890607D46FF0200101612046D7
:10123000BDE87040FFF7B9BD70BD70477047000052
:1012400070B5006819491A4C884204D10121194827
:10125000FFF772FA606000215FF0010301EB4100CB
:1012600014F8202022B1012A0AD0022A19D111E053
:1012700004EB80025268012A13D104F8203010E0F8
:1012800004EB80025568012D0BD1022504F8205093
:10129000936006E004EB8002526812B9002204F861
:1012A0002020491C0429D9DB70BD00000004004047
:1012B00040040020000C01400246002041B10429F6
:1012C00009D008290AD00C2901D11068006C704798
:1012D0001068406B70471068806B70471068C06B77
:1012E00070477047704710F8391F407808437047BF
:1012F00070B5026804461068D168536910F00F0F8A
:1013000052D003F0010501F490762E435FD0C2075E
:1013100005D0CA0503D5E26B42F00102E263420741
:1013200005D5DA0703D0E26B42F00202E2638207DE
:1013300005D5DA0703D0E26B42F00402E26302074C
:1013400007D501F020022A4303D0E26B42F00802E5
:10135000E263E26B002A33D0800604D5880602D50A
:10136000204600F0E3FB20684069E16BC0F3801089
:10137000090700D428B3204600F0CAFB2068416961
:1013800049061AD5416921F040014161606BA0B165
:101390002D494163606BFFF781F8002810D0606B26
:1013A000416BBDE870400847830610D58B060ED50B
:1013B0002046BDE8704000F0B9BB2046FFF792FF21
:1013C00070BD2046FFF78EFF0020E06370BD03066E
:1013D0002BD50B0629D594F839002128F6D1A06821
:1013E000B0F5805F01D12069B0B1206A411C216253
:1013F000216800784860E08C401E0004000CE08406
:10140000E4D12068C16821F08001C1602068C16812
:1014100041F04001C16070BD206A0088C0F308003F
:101420005060206A801C2062E5E74006F3D548063C
:10143000F1D5D168204621F04001D160202184F807
:10144000391000F0CAF970BD011B000870B5040026
:1014500004D094F83900002510B106E0012070BDD9
:1014600084F83850204600F023F8242084F839000E
:101470002068C16821F40051C160204600F09CFB47
:101480002068016921F4904101612068416921F0DF
:101490002A0141612068C16841F40051C160E563DF
:1014A000202084F8390084F83A00002070BD000044
:1014B000F0B585B00024009401940294039403686D
:1014C000424F022042490322424D4602BB4225D1EF
:1014D0008B6943F480438B618B6903F480430493ED
:1014E0008B6943F004038B618969039201F0040165
:1014F00004910102CDE9001069462846FFF72CF857
:10150000CDE90064694628460294FFF725F80022D9
:1015100011462520FFF786F9252028E02E4FBB42F3
:1015200029D1CB6943F40033CB61CB6903F4003399
:1015300004938B6943F004038B618969039201F082
:10154000040104910421CDE9001069462846FFF703
:1015500003F80820CDE90004694628460294FEF706
:10156000FBFF002211462620FFF75CF92620FFF73B
:101570004BF905B0F0BD194DAB42FAD1CB6943F43C
:101580008023CB61CB6903F4802304938B6943F000
:1015900008038B618969124D01F00801CDE903212F
:1015A000CDE9006069462846FEF7D6FFE814CDE98C
:1015B0000004694628460294FEF7CEFF0022114639
:1015C0002720FFF72FF92720D1E70000003801403E
:1015D0000010024000080140004400400048004064
:1015E000000C014090F83A30202B22D1F9B1F2B131
:1015F00090F83830012B1CD081628285C285002191
:10160000C163222280F83A2080F838100168CA6845
:1016100042F48072CA6001684A6942F001024A617C
:101620000068C16841F02001C160002070470120BE
:10163000704702207047000070B5354C02680023E7
:101640003449A24216D14A68140413D40C465504F6
:10165000247804D50A2C0CD142F400421CE00D2C55
:1016600018D0C2F30D052C4E521CC72A74554A607F
:1016700000D94B60294C0268A2421ED18A6814042A
:101680001BD4244C550404F10104247809D50A2CF8
:1016900012D103E042F480424A60EBE742F4004298
:1016A0001EE00D2C1AD01C4EC2F30D05C836521C7C
:1016B00074558A60C72A00D98B600068184A904226
:1016C0000BD1C868020408D4124A440402F1020291
:1016D000127807D50A2A11D0CB6070BD42F480423F
:1016E0008A60EAE70D2A0CD00E4DC0F30D04401CB1
:1016F0002A55C0F30D02C860072A06D340F4004003
:1017000001E040F48040C86070BDC728E4D870BDD7
:101710000038014000000020DE00002000440040AE
:10172000004800406E0200202DE9F843044690F87E
:1017300039001F4616460D4620284CD1C5B1BEB112
:1017400094F83800012846D0012084F838004FF082
:101750000008C4F83C80212084F83900FEF7F6FF29
:10176000A6848146E684A068B0F5805F03D004E0DB
:101770000120BDE8F883206928B12E465FF00005FE
:1017800084F838800EE00026FAE78021204600F039
:101790006FFAA0B9AEB116F8010B21684860E08C71
:1017A000401EE084E08C4B464FF00002009700287A
:1017B000EBD14FF04001204600F05AFA30B103203F
:1017C000D7E735F8020BC0F30800E6E7202084F8DD
:1017D00039000020CDE70220CBE77047FEE700008C
:1017E00070B586B000241B480094019402940394C1
:1017F000816941F020018161816901F0200104913A
:10180000816941F004018161816901F00401049161
:10181000816941F00801816180690F4E00F0080084
:1018200004900022F0213046FEF78BFFF0200125C6
:10183000CDE900050220CDE9024069463046FEF7B9
:101840008BFECDE90054694604480294FEF784FEFD
:1018500006B070BD0010024000080140000C0140BD
:1018600010B586B0002417480094019402940394A4
:1018700004941349059401604721C0E9011442F220
:101880000F71C0E903148461FFF7C4FA08B1FEF7D1
:1018900003FE4FF48050009069460A48FFF732FB80
:1018A00008B1FEF7F9FD049404A906480594FFF772
:1018B0007DFA002801D0FEF7EFFD06B010BD000054
:1018C00000040040380300200C4810B50A490160AC
:1018D0004FF416514160002181600C22C160C0E9C3
:1018E00004128161C161FFF7B1FD002803D0BDE89A
:1018F0001040FEF7D1BD10BD00380140800300202C
:101900000C4810B50A4901604FF4E13141600021F3
:1019100081600C22C160C0E904128161C161FFF7DE
:1019200095FD002803D0BDE81040FEF7B5BD10BD01
:1019300000440040C00300200C4810B50A49016073
:101940004FF416514160002181600C22C160C0E952
:1019500004128161C161FFF779FD002803D0BDE861
:101960001040FEF799BD10BD004800400004002063
:1019700070B506000DD0FEF753FC0546002406E0C6
:101980003119FF2301220348FFF7CEFE641CAC424D
:10199000F6D370BDC0030020FEE7FEE77047704736
:1019A000FEF7DABE30B58FB028216846FEF757FC47
:1019B00014210AA8FEF753FC01210804CDE9001008
:1019C0000024029402250491CDE907504FF4E01061
:1019D00009906846FFF744F808B172B6FEE70F2099
:1019E000CDE90A054FF48060CDE90C4002210AA838
:1019F0000E94FEF749FF002801D072B6FEE70FB043
:101A000030BD70470148FFF765BB00003803002078
:101A1000F0B50268164B174C174D4FF080479842AF
:101A200005D0B84203D0A04201D0A84203D122F091
:101A300070064A683243984205D0B84203D0A042AB
:101A400001D0A84203D122F44074CA6822434C69F1
:101A500022F08002224302608A68C2620A688262BF
:101A6000984201D10969016301214161F0BD000083
:101A7000002C0140000400400008004010B501F0B7
:101A80001F030121046A99408C430462016A9A4051
:101A90001143016210BD10B5846842EA032224F4A8
:101AA0007F440A432243826010BD826822F07002A4
:101AB0000A4342F007018160704710B5036A046A67
:101AC00024F001040462846924F0F00444EA02145E
:101AD00023F00A020A438461026210BD10B5036A52
:101AE00023F0100303628369046A23F4704343EA1A
:101AF000023224F0A00343EA01118261016210BDA9
:101B000010B5406A0021C185C184FFF7EBFB10BD11
:101B10000168CA6822F49072CA6001684A6922F0BA
:101B200001024A61202180F83A10704710B590F800
:101B30003A10222901D0022010BD82684FF4805350
:101B40009A4201D1016921B1816A9A421BD04AB1FE
:101B50000AE00268816A5268C2F308020A80816A58
:101B6000891C08E0026972B10268526802F07F02C3
:101B70000A70816A491C8162C18D491E0904090CE1
:101B8000C18503D016E002685268F1E70168CA68AF
:101B900022F02002CA600168CA6822F48072CA601A
:101BA00001684A6922F001024A61202180F83A1056
:101BB000FFF742FD002010BD70B5044600680169C2
:101BC000E26821F44051114301612169A068084392
:101BD000616908432168CA6841F20C639A43024371
:101BE000CA6020684169A26921F4407111434161D2
:101BF0001E492068884202D1FEF7ECFE01E0FEF7A4
:101C0000D9FE00EBC00101EB001260686421800086
:101C1000B2FBF0F3B3FBF1F36FF018067343B2FBC2
:101C2000F0F5B2FBF0F605EB8305322303EB051567
:101C3000B5FBF1F5B6FBF1F605F0F00505EB061581
:101C4000B2FBF0F6B2FBF0F0B0FBF1F06FF018026F
:101C5000504306EB800003EB0010B0FBF1F021686D
:101C600000F00F002844886070BD0000003801407B
:101C70002DE9F041984617460E460446069D1DE0A4
:101C8000681C1BD02DB1FEF761FDA0EB0800A84237
:101C900014D92068C16821F4D071C16020684169FD
:101CA00021F001014161202084F8390084F83A00D4
:101CB000002084F838000320BDE8F0812068006827
:101CC00036EA000004D00020B842D9D00020F3E763
:101CD0000120F9E770B500240C4D0D48FFF708FB13
:101CE00002E0641CAC4204D80948FFF7FCFA202843
:101CF000F7D1002402E0641CAC4206D80122054959
:101D00000348FFF76FFC0028F5D170BDFFFF01000D
:101D1000800300200000002070B500240C4D0D4809
:101D2000FFF7E6FA02E0641CAC4204D80948FFF76A
:101D3000DAFA2028F7D1002402E0641CAC4206D86D
:101D4000012205490348FFF74DFC0028F5D170BD7D
:101D5000FFFF0100C00300200100002070B5002437
:101D60000C4D0D48FFF7C4FA02E0641CAC4204D8E5
:101D70000948FFF7B8FA2028F7D1002402E0641CD4
:101D8000AC4206D8012205490348FFF72BFC002886
:101D9000F5D170BDFFFF010000040020020000200B
:101DA000FEE70907090E002804DB00F1E02080F8B7
:101DB0000014704700F00F0000F1E02080F8141DBF
:101DC00070470000FEF7D0FCFFF7ECFDFFF708FDC1
:101DD000FFF77AFDFFF794FDFFF7AEFDFFF740FD3B
:101DE000F848FFF763F80122F749F848FFF7FAFBD4
:101DF000F5490122491CF648FFF7F4FBF24901229C
:101E0000891CF448FFF7EEFBFEF790FAEE4E01272F
:101E1000F14C0025F0680104FCD5C0B2EF49F07028
:101E2000F5600D54E84907221031EC48FEF7CCF973
:101E300000287CD0E44907221731E848FEF7C4F9AE
:101E4000002874D0E04907221E31E448FEF7BCF9AF
:101E500000286DD0DC4907222531E048FEF7B4F9AF
:101E60000028F6D0D84907222C31DC48FEF7ACF91F
:101E700000287DD0D44907223331D848FEF7A4F991
:101E8000002876D0D04907223A31D448FEF79CF991
:101E90000028F6D0CC4907224131D048FEF794F90A
:101EA000002867D0C84907224831CC48FEF78CF992
:101EB0000028F6D0C44907224F31C848FEF784F9FC
:101EC00000286ED0C04907225631C448FEF77CF97D
:101ED0000028F6D0BC4907225D31C048FEF774F9EE
:101EE000002876D0B84907226431BC48FEF76CF967
:101EF00000286FD0B44907226B31B848FEF764F967
:101F0000002868D0B04907227231B448FEF75CF966
:101F100000286BD0AC4907227931B048FEF754F95C
:101F200000286ED0A84907228031AC4801E039E092
:101F300046E0FEF749F900286ED0A3490722873111
:101F4000A648FEF741F9002867D09F4907228E3145
:101F5000A248FEF739F9002865D09B490722953140
:101F60009E48FEF731F900283FF454AF072202E003
:101F700037E047E057E0944998489C31FEF724F950
:101F80000028F1D090490722A3319448FEF71CF9AC
:101F90000028E9D08C490722AA319048FEF714F9AD
:101FA00038E74AE0207830B10128F9D18CA0FFF75A
:101FB000DFFC25702EE796A0FFF7DAFC277029E7F3
:101FC000607848B10128EBD19DA0FFF7D1FC657086
:101FD00020E740E04DE08BE0A5A0FFF7C9FC67706B
:101FE00018E7A07840B10128DAD100E0DFE0ACA02A
:101FF000FFF7BEFCA5700DE7B3A0FFF7B9FCA77013
:1020000008E743E2E07830B10128C9D1B8A0FFF772
:10201000AFFCE570FEE601E056E273E2C0A0FFF718
:10202000A7FCE770F6E6207900287DD00128B7D11B
:10203000C7A0FFF79DFC2571ECE6607930B101285F
:10204000AED1D0A0FFF794FC6571E3E6DAA0FFF70C
:102050008FFC6771DEE6A07930B10128A0D1E3A042
:10206000FFF786FCA571D5E6ECA0FFF781FCA77110
:10207000D0E6E07900281ED0012891D158A0FFF7C2
:1020800077FC2820FEF756FA99A0FFF771FC28206C
:10209000FEF750FAAEA0FFF76BFC2820FEF74AFAD5
:1020A000B8A0FFF765FC2820FEF744FA64A0FFF70C
:1020B0005FFCE571AEE656A0FFF75AFC2820FEF75C
:1020C00039FA97A0FFF754FC2820FEF733FADFA077
:1020D000FFF74EFC2820FEF72DFAB7A0FFF748FCCB
:1020E0002820FEF727FA62A0FFF742FCE77191E68D
:1020F000207A00282FD001288CD139A0FFF738FC96
:102100001420FEF717FA7AA0FFF732FC1420FEF72E
:1021100011FA8FA0FFF72CFC1420FEF70BFA99A000
:10212000FFF726FC142000E0FCE1FEF703FA44A0D0
:10213000FFF71EFC1420FEF7FDF959A0FFF718FC6D
:102140001420FEF7F7F9A9A0FFF712FC1420FEF700
:10215000F1F925725EE62EA0FFF70AFC1420FEF7C7
:10216000E9F96FA0FFF704FC1420FEF7E3F9B7A02C
:10217000FFF7FEFB1420FEF7DDF98FA0FFF7F8FB59
:102180001420FEF7D7F93AA0FFF7F2FB1420FEF770
:10219000D1F94DA0FFF7ECFB1420FEF7CBF99FA07F
:1021A000FFF7E6FB1420FEF7C5F9277232E6607AE6
:1021B00030B101289BD10AA0FFF7DAFB657229E64E
:1021C0005EE10000380300200000002080030020B2
:1021D000C003002000040020CC0000206E0200207C
:1021E00041542B4D5154545055423D302C22736D67
:1021F000617274686F6D652F626564726F6F6D2FA9
:102200006C6564222C2230222C302C300D0A000008
:1022100041542B4D5154545055423D302C22736D36
:10222000617274686F6D652F626564726F6F6D2F78
:102230006C6564222C2231222C302C300D0A0000D7
:1022400041542B4D5154545055423D302C22736D06
:10225000617274686F6D652F6B69746368656E2F4A
:102260006C6564222C2230222C302C300D0A0000A8
:1022700041542B4D5154545055423D302C22736DD6
:10228000617274686F6D652F6B69746368656E2F1A
:102290006C6564222C2231222C302C300D0A000077
:1022A00041542B4D5154545055423D302C22736DA6
:1022B000617274686F6D652F66616E222C22302208
:1022C0002C302C300D0A000041542B4D51545450E9
:1022D00055423D302C22736D617274686F6D652FAD
:1022E00066616E222C2231222C302C300D0A000027
:1022F00041542B4D5154545055423D302C22736D56
:10230000617274686F6D652F62617468726F6F6D52
:102310002F6C6564222C2230222C302C300D0A00C8
:1023200041542B4D5154545055423D302C22736D25
:10233000617274686F6D652F62617468726F6F6D22
:102340002F6C6564222C2231222C302C300D0A0097
:1023500041542B4D5154545055423D302C22736DF5
:10236000617274686F6D652F7374756479726F6FC5
:102370006D2F6C6564222C2230222C302C300D0AFB
:102380000000000041542B4D5154545055423D30F3
:102390002C22736D617274686F6D652F6C6976693C
:1023A0006E67726F6F6D2F6C6564222C2230222C49
:1023B000302C300D0A00000041542B4D5154545024
:1023C00055423D302C22736D617274686F6D652FBC
:1023D0006C6976696E67726F6F6D2F6C6564222C05
:1023E0002231222C302C300D0A00000041542B4D9C
:1023F0005154545055423D302C22736D61727468B3
:102400006F6D652F68756D69646966696572222CE8
:102410002230222C302C300D0A00000041542B4D6C
:102420005154545055423D302C22736D6172746882
:102430006F6D652F68756D69646966696572222CB8
:102440002231222C302C300D0A00000041542B4D3B
:102450005154545055423D302C22736D6172746852
:102460006F6D652F7374756479726F6F6D2F6C6506
:1024700064222C2231222C302C300D0A0000000066
:10248000AFF27420FFF774FA6772C3E4A07A70B1F8
:102490000128FAD1AFF21410FFF76AFA1420FEF700
:1024A00049F8AFF2B800FFF763FAA572B2E4AFF2F1
:1024B000F800FFF75DFA1420FEF73CF8AFF2A40035
:1024C000FFF756FAA772A5E4E07A70B10128DCD1D3
:1024D000AFF29420FFF74CFA1420FEF72BF8AFF27E
:1024E0004020FFF745FAE57294E4AFF27C20FFF755
:1024F0003FFA1420FEF71EF8AFF23420FFF738FA47
:10250000E77287E4207B38B10128BED1AFF22020EA
:10251000FFF72EFA25737DE4AFF2FC10FFF728FADF
:10252000277377E4AFF2DC00FFF722FA277171E43A
:102530000000000000000000010203040607080973
:1025400000000000010203046825000800000020CC
:10255000CC0000002801000834260008CC00002030
:10256000040A000044010008000000000000000010
:10257000000000000000000065000D01FFFFFF6586
:10258000001401FFFFFF65000F01FFFFFF65001949
:1025900001FFFFFF65001001FFFFFF65000C01FF59
:1025A000FFFF65001601FFFFFF65000E01FFFFFF43
:1025B00065001B01FFFFFF65001101FFFFFF6500C4
:1025C0001701FFFFFF65001201FFFFFF65001D01FE
:1025D000FFFFFF65001F01FFFFFF65001E01FFFFFA
:1025E000FF65002001FFFFFF65002101FFFFFF6580
:1025F000002201FFFFFF65002301FFFFFF650024AC
:1026000001FFFFFF65002501FFFFFF65002601FFB9
:10261000FFFF65002701FFFFFF0000000100000031
:1026200010000000000000000024F4000000000082
:0426300000000000A6
:04000005080000ED02
:00000001FF
